:020000040800F2
:10000000A80A0020BD2A0008AD2C0008B92C000861
:10001000C12C0008C92C0008D12C000800000000E9
:10002000000000000000000000000000D92C0008C3
:10003000E52C000800000000F12C0008FD2C000851
:10004000212B0008212B0008212B0008212B000860
:10005000212B0008212B0008212B0008212B000850
:10006000212B0008212B0008212B0008212B000840
:10007000212B0008212B0008212B0008212B000830
:10008000212B0008212B0008212B0008212B000820
:10009000212B0008212B0008212B0008212B000810
:1000A000212B0008212B0008212B0008212B000800
:1000B0009D2D0008FD2D0008692E0008212B000849
:1000C000212B0008212B0008212B0008212B0008E0
:1000D000212B0008212B0008212B0008212B0008D0
:1000E000212B0008212B0008212B00080000000014
:1000F0000000000000000000000000000000000000
:100100000000000000000000D52E0008212B000890
:100110004D310008212B0008212B0008212B00085D
:10012000212B0008212B0008212B0008212B00087F
:10013000212B0008212B0008212B0008C5190008DD
:10014000011A0008212B0008212B0008212B000890
:100150005FF808F180B582B000AF78607A684FF43C
:100160003053C4F201039A420AD14FF400600121D6
:1001700002F054FC4FF40060002102F04FFC0BE150
:100180007B68B3F1804F08D10120012102F06EFCA1
:100190000120002102F06AFCFEE07A684FF48063DF
:1001A000C4F200039A4208D10220012102F05EFC51
:1001B0000220002102F05AFCEEE07A684FF400635E
:1001C000C4F200039A4208D10420012102F04EFC3F
:1001D0000420002102F04AFCDEE07A684FF440631C
:1001E000C4F200039A4208D10820012102F03EFC2B
:1001F0000820002102F03AFCCEE07A684FF48053E8
:10020000C4F200039A4208D11020012102F02EFC12
:100210001020002102F02AFCBEE07A684FF4A053BF
:10022000C4F200039A4208D12020012102F01EFCF2
:100230002020002102F01AFCAEE07A684FF45053FF
:10024000C4F201039A420AD14FF40050012102F096
:10025000E5FB4FF40050002102F0E0FB9CE07A68DF
:100260004FF49843C4F201039A420AD14FF400209C
:10027000012102F0D3FB4FF40020002102F0CEFB5D
:100280008AE07A684FF4A043C4F201039A420AD18B
:100290004FF48010012102F0C1FB4FF480100021C7
:1002A00002F0BCFB78E07A684FF4A843C4F2010383
:1002B0009A420AD14FF40010012102F0AFFB4FF433
:1002C0000010002102F0AAFB66E07A684FF4C053E8
:1002D000C4F200039A4208D14020012102F0C6FB7B
:1002E0004020002102F0C2FB56E07A684FF4E05350
:1002F000C4F200039A4208D18020012102F0B6FB2B
:100300008020002102F0B2FB46E07A684FF40053EF
:10031000C4F200039A420AD14FF48070012102F026
:10032000A5FB4FF48070002102F0A0FB34E07A6856
:100330004FF48043C4F201039A420AD14FF4803053
:10034000012102F06BFB4FF48030002102F066FBCC
:1003500022E07A684FF48843C4F201039A420AD13A
:100360004FF40030012102F059FB4FF4003000211E
:1003700002F054FB10E07A684FF49043C4F201039A
:100380009A4209D14FF48020012102F047FB4FF43B
:100390008020002102F042FB0837BD4680BD00BF2F
:1003A00080B485B000AF786039600023FB817B6842
:1003B0001B88FB817A684FF43053C4F201039A42E0
:1003C0001FD07A684FF45053C4F201039A4218D0F8
:1003D0007B68B3F1804F14D07A684FF48063C4F225
:1003E00000039A420DD07A684FF40063C4F2000310
:1003F0009A4206D07A684FF44063C4F200039A42EE
:1004000008D1FB8923F07003FB813B685A88FB8984
:100410001343FB817A684FF48053C4F200039A427D
:100420000FD07A684FF4A053C4F200039A4208D068
:10043000FB8923F44073FB813B68DA88FB89134313
:10044000FB817B68FA891A803B689A887B689A8569
:100450003B681A887B681A857A684FF43053C4F277
:1004600001039A421BD07A684FF45053C4F201033F
:100470009A4214D07A684FF48043C4F201039A423E
:100480000DD07A684FF48843C4F201039A4206D033
:100490007A684FF49043C4F201039A4204D13B6856
:1004A0001B7A1A467B681A867B6801229A82143767
:1004B000BD465DF8047B704780B483B000AF7860C0
:1004C0000B46FB70FB78002B08D07B681B889BB227
:1004D00043F001039AB27B681A8007E07B681B88AF
:1004E0009BB223F001039AB27B681A800C37BD4699
:1004F0005DF8047B704700BF80B483B000AF7860C4
:1005000013460A467A807B707B78002B08D07B6884
:100510009B899AB27B8813439AB27B689A8109E0DF
:100520007B689B899AB27B88DB439BB213409AB26B
:100530007B689A810C37BD465DF8047B704700BF2D
:1005400080B483B000AF786013460A467A803B805F
:100550007B687A881A857B683A889A820C37BD4610
:100560005DF8047B704700BF80B487B000AFF860CF
:1005700079813A81FB800023FB820023BB82002328
:100580007B82FB681B89FB82FB681B8BBB82FB6841
:100590001B8C7B82FB8A23F00703FB82FA8A7B8910
:1005A0001343FB82BB8A23F4407323F00303BB8213
:1005B000BB8A43F4807343F00103BB827B8A23F040
:1005C00022037B82FB881B019AB23B8913439AB2B8
:1005D0007B8A13437B82FB68FA8A1A81FB68BA8A9A
:1005E0001A83FB687A8A1A841C37BD465DF8047B3F
:1005F000704700BF80B483B000AF78607B689B8C8D
:100600009BB218460C37BD465DF8047B704700BFAF
:1006100080B483B000AF78600B467B807B88DB437F
:100620009AB27B681A820C37BD465DF8047B70472E
:1006300080B485B000AF78600B467B800023FB73ED
:100640000023BB8100237B817B681B8A9AB27B8855
:100650001340BB817B689B899AB27B8813407B8166
:10066000BB89002B05D07B89002B02D00123FB73B3
:1006700001E00023FB73FB7B18461437BD465DF891
:10068000047B704780B483B000AF78600B467B80FA
:100690007B88DB439AB27B681A820C37BD465DF8D3
:1006A000047B704780B500AF4FF48053C4F202035F
:1006B0004FF48052C4F20202126842F001021A6042
:1006C0004FF48052C4F202024FF48053C4F202038A
:1006D00059680023CFF2FF030B4053604FF480535F
:1006E000C4F202034FF48052C4F20202126822F0F4
:1006F000847222F480321A604FF48053C4F20203F1
:100700004FF48052C4F20202126822F480221A606E
:100710004FF48053C4F202034FF48052C4F2020239
:10072000526822F4FE025A604FF48053C4F202036E
:100730004FF48052C4F20202126822F0A0521A60F2
:100740004FF48053C4F202034FF47F029A604FF4D7
:100750008053C4F202030022DA6200F009F84FF479
:100760006D43CEF200034FF000629A6080BD00BF7F
:1007700080B500AF00F002F880BD00BF80B483B048
:1007800000AF00237B6000233B604FF48053C4F232
:1007900002034FF48052C4F20202126842F4803223
:1007A0001A604FF48053C4F202031B6803F4003351
:1007B0003B607B6801337B603B68002B03D17B6827
:1007C000B3F5A06FEDD14FF48053C4F202031B6860
:1007D00003F40033002B02D001233B6001E000232F
:1007E0003B603B68012B40F0C7804FF40053C4F2DC
:1007F00002034FF40052C4F20202126842F01002E7
:100800001A604FF40053C4F202034FF40052C4F2D2
:100810000202126822F003021A604FF40053C4F27D
:1008200002034FF40052C4F20202126842F00202C4
:100830001A604FF48053C4F202034FF48052C4F2A2
:10084000020252685A604FF48053C4F202034FF41C
:100850008052C4F2020252685A604FF48053C4F2CC
:1008600002034FF48052C4F20202526842F48062E2
:100870005A604FF48052C4F202024FF48053C4F223
:100880000203D96A4FF47043CFF6FE730B40D36274
:100890004FF48053C4F202034FF48052C4F20202B8
:1008A000D26A42F4833242F04402DA624FF4805357
:1008B000C4F202034FF48052C4F20202126842F002
:1008C00080621A6000BF4FF48053C4F202031B68B9
:1008D00003F00063002BF6D04FF48053C4F2020300
:1008E0004FF48052C4F20202526822F47C125A6021
:1008F0004FF48053C4F202034FF48052C4F2020258
:10090000526842F4E8125A604FF48053C4F2020372
:100910004FF48052C4F20202126842F080721A60F0
:1009200000BF4FF48053C4F202031B6803F000734E
:10093000002BF6D04FF48053C4F202034FF48052E0
:10094000C4F20202526822F003025A604FF480534C
:10095000C4F202034FF48052C4F20202526842F021
:1009600002025A6000BF4FF48053C4F202035B6876
:1009700003F00C03082BF6D10C37BD465DF8047B61
:10098000704700BF80B586B000AF0023FB824FF0F8
:100990008040FFF7DFFB4FF48060C4F20000FFF7F8
:1009A000D9FB4FF40060C4F20000FFF7D3FB4FF413
:1009B0004060C4F20000FFF7CDFB0F20012102F0E0
:1009C00005F80120012101F0D9FF0420012101F0E7
:1009D000D5FF0820012101F0D1FF4FF48070C0F253
:1009E0001800012100F01EFF4FF40070C0F230002B
:1009F000012100F017FF48F2C3033B820323BB74BD
:100A00004823FB7407F110034FF40060C4F20100A7
:100A1000194600F033FEC8233B8207F110034FF460
:100A20004060C4F20100194600F028FE40F20003C5
:100A3000C2F200031A684FF6B523CEF69B63A3FB00
:100A400002135B0E9BB2013BFB824FF6FE733B81B0
:100A50000023BB8000237B810023FB8000233B73AA
:100A60003B1D4FF080401946FFF79AFC3B1D4FF4A9
:100A70008060C4F200001946FFF792FC3B1D4FF462
:100A80000060C4F200001946FFF78AFC3B1D4FF4DA
:100A90004060C4F200001946FFF782FCFB8A4FF069
:100AA000804019460122FFF74BFDFB8A4FF480601E
:100AB000C4F2000019460122FFF742FDFB8A4FF401
:100AC0000060C4F2000019460122FFF739FDFB8ADD
:100AD0004FF44060C4F2000019460122FFF730FDD8
:100AE0004FF08040032100220023FFF73DFD4FF42B
:100AF0008060C4F20000032100220023FFF734FDD0
:100B00004FF40060C4F20000032100220023FFF72D
:100B10002BFD4FF44060C4F20000032100220023AB
:100B2000FFF722FD4FF080400121FFF7ABFD4FF0B2
:100B3000804001210122FFF7DFFC4FF48060C4F206
:100B400000000121FFF79EFD4FF48060C4F2000019
:100B500001210122FFF7D0FC4FF40060C4F2000035
:100B60000121FFF78FFD4FF40060C4F20000012166
:100B70000122FFF7C1FC4FF44060C4F200000121E4
:100B8000FFF780FD4FF44060C4F200000121012214
:100B9000FFF7B2FC4FF080400121FFF78DFC4FF4CE
:100BA0008060C4F200000121FFF786FC4FF4006072
:100BB000C4F200000121FFF77FFC4FF44060C4F253
:100BC00000000121FFF778FC1837BD4680BD00BF4B
:100BD00080B582B000AF78607A684FF4C843C4F241
:100BE00000039A420AD14FF00070012101F03EFF4C
:100BF0004FF00070002101F039FF09E04FF08060F4
:100C0000012101F033FF4FF08060002101F02EFF41
:100C10000837BD4680BD00BF80B485B000AF7860A6
:100C200039600023FB730023BB607B681B6823F0E3
:100C300002027B681A607B681B6843F001027B68D4
:100C40001A6002E0BB680133BB607B685B6803F03D
:100C50000103002B04D1BA684FF6FF739A42F1D119
:100C60007B685B6803F00103002B02D10023FB7358
:100C70009CE03B689B79012B06D17B681B6843F0A5
:100C800080027B681A6005E07B681B6823F08002A5
:100C90007B681A603B68DB79012B06D17B681B6897
:100CA00043F040027B681A6005E07B681B6823F014
:100CB00040027B681A603B681B7A012B06D17B6877
:100CC0001B6843F020027B681A6005E07B681B68A4
:100CD00023F020027B681A603B685B7A012B06D107
:100CE0007B681B6843F010027B681A6005E07B6834
:100CF0001B6823F010027B681A603B689B7A012B0B
:100D000006D17B681B6843F008027B681A6005E027
:100D10007B681B6823F008027B681A603B68DB7AFB
:100D2000012B06D17B681B6843F004027B681A60C4
:100D300005E07B681B6823F004027B681A603B684F
:100D40009B789A073B68DB781B061A433B681B7944
:100D50001B041A433B685B791B051A433B681B88DD
:100D6000013B1A437B68DA617B681B6823F0010250
:100D70007B681A600023BB6002E0BB680133BB6084
:100D80007B685B6803F00103002B04D0BA684FF660
:100D9000FF739A42F1D17B685B6803F00103002B7B
:100DA00002D00023FB7301E00123FB73FB7B184699
:100DB0001437BD465DF8047B704700BF80B485B032
:100DC00000AF78600023FB607B689B7A012202FA07
:100DD00003F3FB604FF4C843C4F200034FF4C8426E
:100DE000C4F20002D2F8002242F00102C3F800224D
:100DF0004FF4C843C4F200034FF4C842C4F20002E7
:100E0000D2F81C12FA68D2430A40C3F81C227B684D
:100E10001B7B002B2DD14FF4C843C4F200034FF4C9
:100E2000C842C4F20002D2F80C12FA68D2430A4057
:100E3000C3F80C224FF4C843C4F200037A68927AD4
:100E40007968C9880804796849880143483243F8B9
:100E500032104FF4C842C4F200027B689B7A796872
:100E6000898808047968098801434833DB00134402
:100E700059607B681B7B012B2CD14FF4C843C4F213
:100E800000034FF4C842C4F20002D2F80C12FA6810
:100E90000A43C3F80C224FF4C843C4F200037A6833
:100EA000927A796809880804796849880143483248
:100EB00043F832104FF4C842C4F200027B689B7AB8
:100EC0007968898808047968C98801434833DB0058
:100ED000134459607B68DB7A002B0FD14FF4C84371
:100EE000C4F200034FF4C842C4F20002D2F8041264
:100EF000FA68D2430A40C3F804220DE04FF4C84315
:100F0000C4F200034FF4C842C4F20002D2F8041243
:100F1000FA680A43C3F804227B681B89002B0ED1B0
:100F20004FF4C843C4F200034FF4C842C4F20002B5
:100F3000D2F81412FA68D2430A40C3F814227B682C
:100F40001B89012B0DD14FF4C843C4F200034FF4A9
:100F5000C842C4F20002D2F81412FA680A43C3F875
:100F600014227B685B7B012B0DD14FF4C843C4F284
:100F700000034FF4C842C4F20002D2F81C12FA680F
:100F80000A43C3F81C224FF4C843C4F200034FF4D1
:100F9000C842C4F20002D2F8002222F00102C3F8D3
:100FA00000221437BD465DF8047B704780B485B0DD
:100FB00000AF786039600023FB737B689B6803F0A7
:100FC0008063002B02D00023FB7313E07B689B68D7
:100FD00003F00063002B02D00123FB730AE07B685F
:100FE0009B6803F08053002B02D00223FB7301E0C7
:100FF0000423FB73FB7B042B00F09880FB7BFA7BC4
:101000007968183212010A44126802F00102796804
:1010100018331B010B441A603B681B7A002B13D159
:10102000FB7BFA7B7968183212010A4411683A682E
:10103000126850053A68527A02430A4379681833B5
:101040001B010B441A6015E0FB7BFA7B79681832B0
:1010500012010A4411683A685268D0003A68127A5C
:1010600010433A68527A02430A43796818331B01E5
:101070000B441A603B689B7A03F00F03DAB23B68BB
:101080009A72FB7BFA7B7968183212010A44526823
:1010900022F00F02796818331B010B445A60FB7B66
:1010A000FA7B7968183212010A4451683A68927AD8
:1010B0000A43796818331B010B445A60FB7B3A687A
:1010C000927B11063A68527B120411433A68127BF4
:1010D000120211433A68D27A0A4379681B010B4421
:1010E00003F5C4731A60FB7B3A68927C11063A6878
:1010F000527C120411433A68127C120211433A687E
:10110000D27B0A4379681B010B4403F5C4735A6010
:10111000FB7BFA7B7968183212010A44126842F0AC
:101120000102796818331B010B441A60FB7B1846D7
:101130001437BD465DF8047B704700BF80B485B0AE
:1011400000AFF8600B467A60FB72FB7AFA681B33DB
:101150001B0113441B68DBB203F00403DAB27B68A3
:101160001A727B681B7A002B09D1FB7AFA681B3351
:101170001B0113441B685A0D7B681A6008E0FB7A58
:10118000FA681B331B0113441B68DA087B685A603A
:10119000FB7AFA681B331B0113441B68DBB203F0B4
:1011A0000203DAB27B685A72FB7AFA681B331B01BE
:1011B00013445B68DBB203F00F03DAB27B689A7208
:1011C000FB7AFA681B331B0113445B681B0ADAB213
:1011D0007B68DA74FB7AFA681B01134403F5DC734D
:1011E0001B68DAB27B68DA72FB7AFA681B01134477
:1011F00003F5DC731B681B0ADAB27B681A73FB7A8F
:10120000FA681B01134403F5DC731B681B0CDAB28C
:101210007B685A73FB7AFA681B01134403F5DC738D
:101220001B681B0EDAB27B689A73FB7AFA681B01A3
:10123000134403F5DC735B68DAB27B68DA73FB7A1C
:10124000FA681B01134403F5DC735B681B0ADAB20E
:101250007B681A74FB7AFA681B01134403F5DC738C
:101260005B681B0CDAB27B685A74FB7AFA681B0164
:10127000134403F5DC735B681B0EDAB27B689A7467
:10128000FB7A002B06D1FB68DB6843F02002FB6889
:10129000DA6005E0FB681B6943F02002FB681A6115
:1012A0001437BD465DF8047B704700BF80B485B03D
:1012B00000AFF860B9601346FB71FB79002B06D0D4
:1012C000FB685A69BB681A43FB685A6106E0FB6811
:1012D0005A69BB68DB431A40FB685A611437BD4644
:1012E0005DF8047B704700BF80B584B000AF7860C4
:1012F00039600023FB737B685A693B681340002BFD
:1013000000F0B5803B68402B65D0402B0FD8042BF4
:101310003DD0042B04D8012B24D0022B2ED0A2E0E8
:10132000102B46D0202B4DD0082B39D09BE0B3F5A5
:10133000006F00F08680B3F5006F09D8B3F5007F29
:101340006DD0B3F5806F73D0B3F5807F5ED08AE047
:10135000B3F5803F48D0B3F5003F4ED0B3F5004F12
:1013600078D080E07B689B68184640F20111C0F29B
:10137000010100F0F3F80346FB7377E07B68DB685C
:101380001846032100F0EAF80346FB736EE07B6821
:10139000DB681846082100F0E1F80346FB7365E0BE
:1013A0007B68DB681846102100F0D8F80346FB7311
:1013B0005CE07B681B691846032100F0CFF8034608
:1013C000FB7353E07B681B691846082100F0C6F8E0
:1013D0000346FB734AE07B681B691846102100F046
:1013E000BDF80346FB7341E07B685B681846082143
:1013F00000F0B4F80346FB7338E07B685B6818467E
:10140000102100F0ABF80346FB732FE07B689B696B
:101410001846012100F0A2F80346FB7326E07B6822
:101420009B691846022100F099F80346FB731DE002
:101430007B689B691846042100F090F80346FB7313
:1014400014E07B689B691846702100F087F803461A
:10145000FB730BE07B685B681846042100F07EF8A4
:101460000346FB7302E00023FB7300BF01E000238F
:10147000FB73FB7B18461037BD4680BD80B483B03C
:1014800000AF786039603B68B3F5807F46D0B3F534
:10149000807F0DD8082B2DD0082B04D8012B1ED00F
:1014A000042B23D054E0202B28D0402B2AD04FE00F
:1014B000B3F5006F3ED0B3F5006F06D8B3F5007FEB
:1014C00030D0B3F5806F31D042E0B3F5803F1DD00E
:1014D000B3F5003F1ED0B3F5004F32D038E07A6844
:1014E00040F20113C0F20103936031E07B680822EF
:1014F000DA602DE07B681022DA6029E07B68082240
:101500001A6125E07B6810221A6121E07B680822BD
:101510005A601DE07B6810225A6019E07B68042243
:101520005A6015E07B6804225A6011E07B6804224F
:101530005A600DE07B6800229A617B6804225A6041
:1015400006E07B6800229A617B6804225A6000BF33
:101550000C37BD465DF8047B704700BF80B485B092
:1015600000AF786039600023FB737A683B681340F2
:10157000002B02D00123FB7301E00023FB73FB7BF4
:1015800018461437BD465DF8047B704780B582B0BD
:1015900000AF78607A684FF40063C4F201039A42A6
:1015A00008D10420012101F039FA0420002101F0C2
:1015B00035FA60E07A684FF44063C4F201039A425E
:1015C00008D10820012101F029FA0820002101F0AA
:1015D00025FA50E07A684FF48053C4F201039A422E
:1015E00008D11020012101F019FA1020002101F08A
:1015F00015FA40E07A684FF4A053C4F201039A420E
:1016000008D12020012101F009FA2020002101F059
:1016100005FA30E07A684FF4C053C4F201039A42ED
:1016200008D14020012101F0F9F94020002101F00A
:10163000F5F920E07A684FF4E053C4F201039A42CE
:1016400008D18020012101F0E9F98020002101F07A
:10165000E5F910E07A684FF40053C4F201039A42AE
:1016600009D14FF48070012101F0D8F94FF4807056
:10167000002101F0D3F90837BD4680BD80B489B0A0
:1016800000AF786039600023FB6100233B610023D9
:10169000BB610023FB6000237B610023BB603B68D0
:1016A000DB7803F00F03FB613B68DB7803F010038A
:1016B000002B04D03B689B78FA691343FB613B68BD
:1016C0001B88DBB2002B44D07B681B687B61002346
:1016D000BB6138E0BB69012202FA03F3FB603B689F
:1016E0001B881A46FB6813403B613A69FB689A42C3
:1016F00026D1BB699B00FB60FB680F2202FA03F353
:10170000BB60BB68DB437A6913407B61FB68FA69A5
:1017100002FA03F37A6913437B613B68DB78282B79
:1017200005D1BB6901229A407B685A6108E03B6899
:10173000DB78482B04D1BB6901229A407B681A618F
:10174000BB690133BB61BB69072BC3D97B687A696D
:101750001A603B681B88FF2B46D97B685B687B61FE
:101760000023BB613AE0BB690833012202FA03F3AC
:10177000FB603B681B881A46FB6813403B613A6973
:10178000FB689A4227D1BB699B00FB60FB680F2274
:1017900002FA03F3BB60BB68DB437A6913407B61E9
:1017A000FB68FA6902FA03F37A6913437B613B68C9
:1017B000DB78282B05D1BB69083301229A407B686E
:1017C0005A613B68DB78482B05D1BB69083301229D
:1017D0009A407B681A61BB690133BB61BB69072B07
:1017E000C1D97B687A695A602437BD465DF8047BAD
:1017F000704700BF80B483B000AF786013460A46DC
:101800007A807B707B78002B03D07A887B681A61A2
:1018100002E07A887B685A610C37BD465DF8047B2C
:10182000704700BF80B487B000AF78600B46FB7094
:1018300000233B610023FB6000237B610023BB602E
:101840007B68002B05DA0023C4F20103DB697B61AE
:1018500004E00023C4F201035B687B617B6803F44E
:1018600070231B0CBB607B689BB23B617B6803F4FD
:101870004013B3F5401F0ED17B6923F070637B6189
:101880000023C4F201030022C4F20102526822F0D4
:1018900070625A6021E07B6803F48013002B0ED045
:1018A000BB68032202FA03F3FB60FB68DB437A693F
:1018B00013407B617B6943F070637B610DE07B6863
:1018C0005B0D1B013A6902FA03F3DB437A691340AB
:1018D0007B617B6943F070637B61FB78002B08D0F0
:1018E0007B685B0D1B013A6902FA03F37A691343C3
:1018F0007B617B68002B05DA0023C4F201037A695F
:10190000DA6104E00023C4F201037A695A601C37EB
:10191000BD465DF8047B704780B483B000AF0346DA
:101920003960FB7197F90730002B0EDA4FF46D43E5
:10193000CEF20003FA7902F00F02111F3A68D2B218
:101940001201D2B20B441A760CE04FF46143CEF28E
:10195000000397F907103A68D2B21201D2B20B44D1
:1019600083F800230C37BD465DF8047B704700BF49
:1019700080B582B000AF78607B68B3F1807F01D31F
:1019800001231AE04EF21003CEF200037A6822F02F
:101990007F42013A5A604FF0FF300F21FFF7BCFF42
:1019A0004EF21003CEF2000300229A604EF21003B2
:1019B000CEF2000307221A60002318460837BD46FE
:1019C00080BD00BF80B500AF4FF4D040C4F200002E
:1019D0000121FFF789FC0346002B10D04FF4D040C3
:1019E000C4F2000040F2C841C2F20001FFF7DEFA83
:1019F0004FF4D040C4F200000121FFF73FFD80BD4D
:101A000080B500AF4FF4D040C4F200000221FFF7D0
:101A10006BFC0346002B10D04FF4D040C4F2000002
:101A2000002140F2B442C2F20002FFF787FB40F20D
:101A3000B440C2F2000000F0D3F980BD80B483B09E
:101A400000AF78607B6800229A840C37BD465DF851
:101A5000047B704780B584B000AF78600023FB60E2
:101A60007B68B3F1804F18D14FF08040FEF7C2FD84
:101A700003461A4640F27843C2F200031B681B0477
:101A8000D11840F27C43C2F200031A6813461B04CB
:101A90009B1A1B040B44FB6064E07A684FF480637C
:101AA000C4F200039A421AD14FF48060C4F20000DD
:101AB000FEF7A0FD03461A4640F28043C2F200033F
:101AC0001B681B04D11840F28443C2F200031A6859
:101AD00013461B049B1A1B040B44FB6042E07A680C
:101AE0004FF40063C4F200039A421AD14FF400602D
:101AF000C4F20000FEF77EFD03461A4640F288431A
:101B0000C2F200031B681B04D11840F28C43C2F2DE
:101B100000031A6813461B049B1A1B040B44FB604A
:101B200020E07A684FF44063C4F200039A4219D16E
:101B30004FF44060C4F20000FEF75CFD03461A4615
:101B400040F29043C2F200031B681B04D11840F21C
:101B50009443C2F200031A6813461B049B1A1B0429
:101B60000B44FB60FB6818461037BD4680BD00BFC4
:101B700080B483B000AF786039607B68B3F1804F88
:101B80003CD140F2C843C2F200034FF488621A60AD
:101B900040F2C843C2F2000300225A7240F2C84326
:101BA000C2F2000300221A7240F2C843C2F20003DC
:101BB00004229A723B68DAB240F2C843C2F20003D0
:101BC000DA723B6803F47F431B12DAB240F2C84377
:101BD000C2F200031A733B6803F47F031B14DAB2EA
:101BE00040F2C843C2F200035A733B681B0EDAB2DC
:101BF00040F2C843C2F200039A73DBE07A684FF404
:101C00008063C4F200039A423FD140F2C843C2F25B
:101C1000000340F243425A6140F2C843C2F200035B
:101C200000225A7740F2C843C2F2000300221A771A
:101C300040F2C843C2F2000304229A773B68DAB24A
:101C400040F2C843C2F20003DA773B6803F47F43F3
:101C50001B12DAB240F2C843C2F2000383F820201C
:101C60003B6803F47F031B14DAB240F2C843C2F2AC
:101C7000000383F821203B681B0EDAB240F2C84310
:101C8000C2F2000383F8222094E07A684FF40063E4
:101C9000C4F200039A4243D140F2C843C2F20003A7
:101CA00040F241429A6240F2C843C2F2000300226D
:101CB00083F8312040F2C843C2F20003002283F8C7
:101CC000302040F2C843C2F20003042283F83220DD
:101CD0003B68DAB240F2C843C2F2000383F8332013
:101CE0003B6803F47F431B12DAB240F2C843C2F2EE
:101CF000000383F834203B6803F47F031B14DAB23B
:101D000040F2C843C2F2000383F835203B681B0E43
:101D1000DAB240F2C843C2F2000383F8362049E049
:101D20007A684FF44063C4F200039A4242D140F211
:101D3000C843C2F2000340F24242DA6340F2C843B1
:101D4000C2F20003002283F8452040F2C843C2F2E9
:101D50000003002283F8442040F2C843C2F200038B
:101D6000042283F846203B68DAB240F2C843C2F24C
:101D7000000383F847203B6803F47F431B12DAB269
:101D800040F2C843C2F2000383F848203B6803F4E2
:101D90007F031B14DAB240F2C843C2F2000383F897
:101DA00049203B681B0EDAB240F2C843C2F200037E
:101DB00083F84A200C37BD465DF8047B704700BFAE
:101DC00080B582B000AF78607868FFF743FE0346C5
:101DD00078681946FFF7CCFE0837BD4680BD00BFC6
:101DE00080B582B000AF78607B681B68A3F5806324
:101DF000432B00F2EA8101A252F823F07F1F000872
:101E0000A3200008372100080F200008CB2100087C
:101E1000CB210008CB210008CB210008CB210008F2
:101E2000CB210008CB210008CB210008CB210008E2
:101E3000CB210008CB210008CB210008CB210008D2
:101E4000CB210008CB210008CB210008CB210008C2
:101E5000CB210008CB210008CB210008CB210008B2
:101E6000CB210008CB210008CB210008CB210008A2
:101E7000CB210008CB210008CB210008CB21000892
:101E8000CB210008CB210008CB210008CB21000882
:101E9000CB210008CB210008CB210008CB21000872
:101EA000CB210008CB210008CB210008CB21000862
:101EB000CB210008CB210008CB210008CB21000852
:101EC000CB210008CB210008CB210008CB21000842
:101ED000CB210008CB210008CB210008CB21000832
:101EE000CB210008CB210008CB210008CB21000822
:101EF000CB210008CB210008CB2100080D1F0008D2
:101F0000471F0008631F00082B1F00084FF0804088
:101F1000FFF756FF4FF4D040C4F2000040F2C84132
:101F2000C2F20001FFF742F850E14FF48060C4F2C2
:101F30000000FFF745FF4FF4D040C4F20000A54970
:101F4000FFF734F842E14FF40060C4F20000FFF7FD
:101F500037FF4FF4D040C4F200009F49FFF726F846
:101F600034E14FF44060C4F20000FFF729FF4FF462
:101F7000D040C4F200009949FFF718F826E17B68C9
:101F8000DB7A002B10D140F27843C2F2000300222A
:101F90001A6040F27C43C2F2000300221A604FF044
:101FA0008040FFF74BFD31E07B68DB7A012B2DD1C0
:101FB0007B685B7B1B029BB223F0FF039AB27B68BA
:101FC0001B7B13439BB29AB240F24843C2F2000318
:101FD0001A8040F24843C2F200031A884FF6FF739A
:101FE0009A4206D140F25043C2F2000300221A6026
:101FF0000CE040F25043C2F2000301221A6040F2AA
:102000006843C2F2000300221A60DFE0DEE07B6872
:10201000DB7A002B12D140F28043C2F2000300228F
:102020001A6040F28443C2F2000300221A604FF4A7
:102030008060C4F20000FFF701FD31E07B68DB7ACD
:10204000012B2DD17B685B7B1B029BB223F0FF032E
:102050009AB27B681B7B13439BB29AB240F248430F
:10206000C2F200035A8040F24843C2F200035A8889
:102070004FF6FF739A4206D140F25043C2F200037A
:1020800000225A600CE040F25043C2F200030122E9
:102090005A6040F26843C2F2000300225A6095E0A1
:1020A00094E07B68DB7A002B12D140F28843C2F2C5
:1020B000000300221A6040F28C43C2F200030022A7
:1020C0001A604FF40060C4F20000FFF7B7FC31E083
:1020D0007B68DB7A012B2DD17B685B7B1B029BB27B
:1020E00023F0FF039AB27B681B7B13439BB29AB227
:1020F00040F24843C2F200039A8040F24843C2F2E1
:1021000000039A884FF6FF739A4206D140F250437B
:10211000C2F2000300229A600CE040F25043C2F287
:10212000000301229A6040F26843C2F200030022D9
:102130009A604BE04AE07B68DB7A002B12D140F2D8
:102140009043C2F2000300221A6040F29443C2F2AC
:10215000000300221A604FF44060C4F20000FFF751
:102160006DFC31E07B68DB7A012B2DD17B685B7BDA
:102170001B029BB223F0FF039AB27B681B7B1343C5
:102180009BB29AB240F24843C2F20003DA8040F2B6
:102190004843C2F20003DA884FF6FF739A4206D131
:1021A00040F25043C2F200030022DA600CE040F239
:1021B0005043C2F200030122DA6040F26843C2F2E7
:1021C00000030022DA6001E000E000BF0837BD46EE
:1021D00080BD00BFDC040020F004002004050020C6
:1021E00080B582B000AFFEF75DFA40F20003C2F2A4
:1021F00000031A6844F6D353C1F26203A3FB02132F
:102200009B091846FFF7B4FB4FF40060C4F20100CD
:10221000FFF7BCF94FF44060C4F20100FFF7B6F9D4
:102220001020012100F0AAFB4FF40053BB800323D0
:10223000BB711023FB713B1D4FF48050C4F20100B1
:102240001946FFF71BFA1023BB800323BB7104233D
:10225000FB713B1D4FF48050C4F201001946FFF79B
:102260000DFAFEF78FFB40F27843C2F20003002222
:102270001A6040F27C43C2F2000300221A604FF061
:102280008040FFF7DBFB40F28043C2F200030022F4
:102290001A6040F28443C2F2000300221A604FF435
:1022A0008060C4F20000FFF7C9FB40F28843C2F22D
:1022B000000300221A6040F28C43C2F200030022A5
:1022C0001A604FF40060C4F20000FFF7B7FB40F261
:1022D0009043C2F2000300221A6040F29443C2F21B
:1022E000000300221A604FF44060C4F20000FFF7C0
:1022F000A5FB00F0F9F800F023FE0837BD4680BDCD
:1023000080B5ACB000AF07F118029623104600214B
:102310001A4600F07DFF012387F8AF30002387F8CD
:10232000AE30FFF75DFF40F25043C2F200031B687E
:10233000002B23D0012B22D140F26843C2F20003CC
:102340001A6840F24843C2F200031B889A4214D331
:1023500040F26843C2F2000300221A604FF080404E
:10236000FFF72EFD4FF4D040C4F2000040F2C84108
:10237000C2F20001FEF71AFE01E000E000BF40F2E9
:102380005043C2F200035B68002B22D0012B21D105
:1023900040F26843C2F200035A6840F24843C2F276
:1023A00000035B889A4213D340F26843C2F20003F1
:1023B00000225A604FF48060C4F20000FFF700FD75
:1023C0004FF4D040C4F200004449FEF7EFFD01E0B5
:1023D00000E000BF40F25043C2F200039B68002BB4
:1023E00022D0012B21D140F26843C2F200039A6847
:1023F00040F24843C2F200039B889A4213D340F252
:102400006843C2F2000300229A604FF40060C4F2F5
:102410000000FFF7D5FC4FF4D040C4F20000304973
:10242000FEF7C4FD01E000E000BF40F25043C2F2FD
:102430000003DB68002B23D0012B00D045E040F2E5
:102440006843C2F20003DA6840F24843C2F2000374
:10245000DB889A4213D340F26843C2F200030022A1
:10246000DA604FF44060C4F20000FFF7A9FC4FF4BB
:10247000D040C4F200001B49FEF798FD01E000E0E7
:1024800000BF22E040F26043C2F2000300221A6063
:1024900097F8AF30002B0CD0002387F8AF304FF403
:1024A0008050C4F201004FF400510122FFF7A2F95D
:1024B0000BE0012387F8AF304FF48050C4F20100E5
:1024C0004FF400510022FFF795F940F26043C2F249
:1024D00000031B68B3F5FA7FD4D824E7DC0400209E
:1024E000F00400200405002080B58AB000AF00236E
:1024F0007B624FF4D040C4F20000FEF769FB4FF05E
:10250000C060012100F062FA0920012100F036FAD2
:102510004FF480533B84482387F82330032387F804
:10252000223007F120034FF44060C4F20100194645
:10253000FFF7A4F84FF400533B84182387F82330A7
:1025400007F120034FF44060C4F201001946FFF781
:1025500095F80123BB760023FB7600233B7700230D
:102560007B770023BB770023FB770023BB75002319
:10257000FB7504233B7605237B760323BB8207F19F
:1025800014034FF4D040C4F200001946FEF744FB98
:10259000E5E17B6ADBB20E33DBB2BB730023BB81A8
:1025A00040F21403C2F200037A6A4C2101FB02F2EA
:1025B00013441B68002B00F0C98101237B7440F297
:1025C0001403C2F200037A6A4C2101FB02F21344A5
:1025D00004331B68012B02D10023FB730EE040F291
:1025E0001403C2F200037A6A4C2101FB02F2134485
:1025F00004331B68002B01D10123FB7340F2140349
:10260000C2F200037A6A4C2101FB02F21344083340
:102610001B68102B40F0F38000233B7440F214033E
:10262000C2F200037A6A4C2101FB02F213440C331C
:102630001B685B019AB240F21403C2F20003796A8C
:102640004C2000FB01F10B441C331B681B019BB2A7
:1026500013439AB240F21403C2F20003796A4C2089
:1026600000FB01F10B442C331B68DB009BB21343CE
:102670009AB240F21403C2F20003796A4C2000FBC4
:1026800001F10B443C331B68DB139BB213439BB239
:102690009BB2FB8040F21403C2F200037A6A4C2121
:1026A00001FB02F2134410331B685B019AB240F243
:1026B0001403C2F20003796A4C2000FB01F10B44C1
:1026C00020331B681B019BB213439AB240F21403E0
:1026D000C2F20003796A4C2000FB01F10B44303355
:1026E0001B68DB009BB213439AB240F21403C2F2A0
:1026F0000003796A4C2000FB01F10B4440331B6856
:10270000DB139BB213439BB29BB27B8140F2140359
:10271000C2F200037A6A4C2101FB02F21344143323
:102720001B685B019AB240F21403C2F20003796A9B
:102730004C2000FB01F10B4424331B681B019BB2AE
:1027400013439AB240F21403C2F20003796A4C2098
:1027500000FB01F10B4434331B68DB009BB21343D5
:102760009AB240F21403C2F20003796A4C2000FBD3
:1027700001F10B4444331B68DB139BB213439BB240
:102780009BB2BB8040F21403C2F200037A6A4C2170
:1027900001FB02F2134418331B685B019AB240F24A
:1027A0001403C2F20003796A4C2000FB01F10B44D0
:1027B00028331B681B019BB213439AB240F21403E7
:1027C000C2F20003796A4C2000FB01F10B4438335C
:1027D0001B68DB009BB213439AB240F21403C2F2AF
:1027E0000003796A4C2000FB01F10B4448331B685D
:1027F000DB139BB213439BB29BB23B81A8E040F238
:102800001403C2F200037A6A4C2101FB02F2134462
:1028100008331B68202B40F09B8001233B7440F25F
:102820001403C2F200037A6A4C2101FB02F2134442
:102830003C331B68DB009AB240F21403C2F200037F
:10284000796A4C2000FB01F10B442C331B689B0080
:102850009BB213439AB240F21403C2F20003796AA6
:102860004C2000FB01F10B441C331B685B009BB246
:1028700013439BB29BB2FB8040F21403C2F20003ED
:102880007A6A4C2101FB02F213440C331B685B0192
:102890009AB240F21403C2F20003796A4C2000FBA2
:1028A00001F10B443C331B685B139BB213439BB297
:1028B0009BB27B8140F21403C2F200037A6A4C217E
:1028C00001FB02F2134440331B68DB009AB240F272
:1028D0001403C2F20003796A4C2000FB01F10B449F
:1028E00030331B689B009BB213439AB240F214032F
:1028F000C2F20003796A4C2000FB01F10B44203343
:102900001B685B009BB213439BB29BB2BB8040F23F
:102910001403C2F200037A6A4C2101FB02F2134451
:1029200010331B685B019AB240F21403C2F2000339
:10293000796A4C2000FB01F10B4440331B685B13A8
:102940009BB213439BB29BB23B8101E000237B749B
:102950003B1D1846FEF732FA7B6A01337B627B6AC5
:102960000D2B7FF716AE4FF4D040C4F200000221C9
:102970000122FEF79BFC2837BD4680BD80B483B0A2
:1029800000AF78600B46FB70FB78002B0CD04FF447
:102990008053C4F202034FF48052C4F202029169E0
:1029A0007A680A439A610CE04FF48053C4F2020340
:1029B0004FF48052C4F2020291697A68D2430A400D
:1029C0009A610C37BD465DF8047B704780B483B0D4
:1029D00000AF78600B46FB70FB78002B0CD04FF4F7
:1029E0008053C4F202034FF48052C4F20202D16950
:1029F0007A680A43DA610CE04FF48053C4F20203B0
:102A00004FF48052C4F20202D1697A68D2430A407C
:102A1000DA610C37BD465DF8047B704780B483B043
:102A200000AF78600B46FB70FB78002B0CD04FF4A6
:102A30008053C4F202034FF48052C4F20202D16800
:102A40007A680A43DA600CE04FF48053C4F2020360
:102A50004FF48052C4F20202D1687A68D2430A402D
:102A6000DA600C37BD465DF8047B704780B483B0F4
:102A700000AF78600B46FB70FB78002B0CD04FF456
:102A80008053C4F202034FF48052C4F2020211696F
:102A90007A680A431A610CE04FF48053C4F20203CF
:102AA0004FF48052C4F2020211697A68D2430A409C
:102AB0001A610C37BD465DF8047B704780B582B063
:102AC00000AF43F2B023C0F600037B6040F2000386
:102AD000C2F200033B6007E03B681A1D3A607A6867
:102AE000111D796012681A603A6840F24443C2F2DC
:102AF00000039A42F0D3084808494FF00002884288
:102B0000B8BF40F8042BFADBFDF7CCFDFFF7F8FB6C
:102B10000837BD4680BD000044040020A806002000
:102B200080B400AFFEE700BF80B487B000AF78602C
:102B300013460A467A807B7000233B610023FB60CA
:102B40000023BB6000237B617B687B617B88DBB2F9
:102B50005B09DBB23B617B8803F01F03FB60FB6812
:102B6000012202FA03F3BB603B69012B03D17B69AD
:102B70000C337B6109E03B69022B03D17B69103385
:102B80007B6102E07B6914337B617B78002B06D08C
:102B90007B697A691168BA680A431A6006E07B6942
:102BA0007A691168BA68D2430A401A601C37BD4678
:102BB0005DF8047B704700BF80B483B000AF7860DD
:102BC0000B467B807B88C3F308039AB27B689A80AC
:102BD0000C37BD465DF8047B704700BF80B483B0FE
:102BE00000AF78607B689B889BB2C3F308039BB2FD
:102BF00018460C37BD465DF8047B704780B487B03B
:102C000000AF78600B467B800023FB6000237B6174
:102C10000023BB600023FB747B88DBB25B09DBB263
:102C2000BB607B8803F01F037B617B69012202FA92
:102C300003F37B61BB68012B06D17B689B899BB248
:102C40007A6913407B610FE0BB68022B06D17B6879
:102C50001B8A9BB27A6913407B6105E07B689B8A83
:102C60009BB27A6913407B617B881B0A9BB2FB6035
:102C7000FB68012202FA03F3FB607B681B889BB2AE
:102C8000FA681340FB607B69002B05D0FB68002BC2
:102C900002D00123FB7401E00023FB74FB7C184687
:102CA0001C37BD465DF8047B704700BF80B400AFA1
:102CB000BD465DF8047B704780B400AFFEE700BFFF
:102CC00080B400AFFEE700BF80B400AFFEE700BFF6
:102CD00080B400AFFEE700BF80B400AFBD465DF832
:102CE000047B704780B400AFBD465DF8047B70473D
:102CF00080B400AFBD465DF8047B704780B400AF80
:102D000040F26043C2F200031B685A1C40F2604369
:102D1000C2F200031A6040F26843C2F200031B686B
:102D20005A1C40F26843C2F200031A6040F2684342
:102D3000C2F200035B685A1C40F26843C2F200030F
:102D40005A6040F26843C2F200039B685A1C40F28A
:102D50006843C2F200039A6040F26843C2F2000383
:102D6000DB685A1C40F26843C2F20003DA6040F2AA
:102D70006443C2F200031B68002B0AD040F2644394
:102D8000C2F200031B685A1E40F26443C2F2000301
:102D90001A60BD465DF8047B704700BF80B500AF88
:102DA0004FF080400121FDF743FC0346002B24D067
:102DB0004FF080431B889BB203F010031B11002BC4
:102DC0000BD140F27843C2F200031B685A1C40F258
:102DD0007843C2F200031A600AE040F27C43C2F278
:102DE00000031B685A1C40F27C43C2F200031A60C5
:102DF0004FF080400121FDF745FC80BD80B500AF5C
:102E00004FF48060C4F200000121FDF711FC03467D
:102E1000002B28D04FF48063C4F200031B889BB2C0
:102E200003F010031B11002B0BD140F28043C2F2C0
:102E300000031B685A1C40F28043C2F200031A6070
:102E40000AE040F28443C2F200031B685A1C40F2BD
:102E50008443C2F200031A604FF48060C4F20000A1
:102E60000121FDF7D5FB80BD80B500AF4FF40060B8
:102E7000C4F200000121FDF7DBFB0346002B28D044
:102E80004FF40063C4F200031B889BB203F01003ED
:102E90001B11002B0BD140F28843C2F200031B68C8
:102EA0005A1C40F28843C2F200031A600AE040F262
:102EB0008C43C2F200031B685A1C40F28C43C2F2DE
:102EC00000031A604FF40060C4F200000121FDF716
:102ED000D9FB80BD80B500AF4FF44060C4F2000064
:102EE0000121FDF7A5FB0346002B28D04FF44063DA
:102EF000C4F200031B889BB203F010031B11002BCC
:102F00000BD140F29043C2F200031B685A1C40F2FE
:102F10009043C2F200031A600AE040F29443C2F206
:102F200000031B685A1C40F29443C2F200031A606B
:102F30004FF44060C4F200000121FDF7A3FB80BD07
:102F400080B582B000AF4FF4E06000F04FF81C2372
:102F50003B7101237B710023BB710123FB713B1D7E
:102F6000184600F057F84FF4E06000F03FF81D23DA
:102F70003B7101237B710023BB710123FB713B1D5E
:102F8000184600F047F84FF4E06000F02FF81E23D9
:102F90003B7101237B710023BB710123FB713B1D3E
:102FA000184600F037F84FF4E06000F01FF83223C5
:102FB0003B7101237B710023BB710123FB713B1D1E
:102FC000184600F027F84FF4E06000F00FF84023B7
:102FD0003B7100237B710023BB710123FB713B1DFF
:102FE000184600F017F80837BD4680BD80B483B09E
:102FF00000AF78604FF46D43CEF200037A6842F080
:10300000BF6242F40032DA600C37BD465DF8047BE3
:10301000704700BF80B487B000AF786000237B6149
:1030200000233B610F23FB607B68DB78002B42D0E1
:103030004FF46D43CEF20003DB68DB4303F4E0633F
:103040001B0A7B617B69C3F104033B617B69FA68FE
:1030500022FA03F3FB607B685B781A463B6902FA4D
:1030600003F37B617B689B781A46FB6813407A699F
:1030700013437B617B691B017B614FF46143CEF29B
:1030800000037A68127811467A69D2B20B4483F849
:1030900000234FF46143CEF200037A68127852099C
:1030A000D2B27968097801F01F01012000FA01F11C
:1030B00043F8221011E04FF46143CEF200037A6826
:1030C00012785209D2B27968097801F01F01012003
:1030D00000FA01F1203243F822101C37BD465DF89A
:1030E000047B704780B483B000AF0346FB7140F2AD
:1030F0003C43C2F200031A6840F2E053C2F20003FC
:10310000F979995440F23C43C2F200031B685A1CFF
:1031100040F23C43C2F200031A6040F23C43C2F268
:1031200000031B68C72B05DD40F29843C2F2000381
:1031300000221A6040F23C43C2F2000301221A60EE
:103140000C37BD465DF8047B704700BF80B582B088
:1031500000AF4FF49840C4F2000040F22551FFF751
:103160004DFD0346002B0BD04FF49840C4F20000F5
:10317000FFF734FD0346FB71FB791846FFF7B2FFFA
:103180004FF49840C4F2000040F22771FFF736FD7B
:103190000346002B39D040F29843C2F200031B686B
:1031A0001A46511C40F29843C2F20003196040F2E3
:1031B000E053C2F200039B5C4FF49840C4F200005D
:1031C0001946FFF7F9FC40F29843C2F200031B686E
:1031D000C72B05DD40F29843C2F2000300221A60BB
:1031E00040F29843C2F200031A6840F23C43C2F234
:1031F00000031B689A4208D14FF49840C4F20000C3
:1032000040F227710022FFF78FFC0837BD4680BDD2
:103210008307F0B448D0541E002A43D0CDB20346F1
:1032200002E0002C3ED0144603F8015B13F0030FBC
:1032300004F1FF32F5D1032C2DD9CDB20F2C45EA84
:10324000052545EA054518D9A4F1100703F1100634
:103250001A463F0906EB07161560103242F80C5C5F
:1032600042F8085C42F8045CB242F5D104F00F0465
:103270000137032C03EB07130DD91E462246043AEF
:1032800046F8045B032AFAD8221F04F0030422F054
:103290000302043213442CB1C9B21C4403F8011BCD
:1032A000A342FBD1F0BC704714460346C3E700BFFE
:1032B00000A24A0400000000000000000102030414
:1032C00006070809010000000000000010000000CF
:1032D00000040000010400000204000003040000D8
:1032E00000000000000000000000000000000000DE
:1032F00000000000000000000000000000000000CE
:1033000000000000000000000000000000000000BD
:103310000100000000000000100000004004000058
:1033200041040000420400004304000001000000CA
:10333000010000000100000001000000000000008A
:10334000000000000000000000000000000000007D
:10335000000000000000000000000000000000006D
:10336000000000001000000001000000000000004C
:10337000000000000000000000000000000000004D
:10338000000000000000000000000000000000003D
:10339000000000000000000000000000000000002D
:1033A000000000000000000000000000010000001C
:1033B00020000000000000000000000000000000ED
:1033C00000000000000000000000000000000000FD
:1033D00000000000000000000000000000000000ED
:1033E00000000000000000000000000000000000DD
:1033F00000000000000000000000000010000000BD
:10340000000000000A0000000B0000000C0000009B
:1034100000000000000000000000000000000000AC
:10342000000000000000000000000000000000009C
:10343000000000000000000000000000000000008C
:10344000000000000000000010000000000000006C
:103450000A0000000B0000000C000000000000004B
:10346000000000000000000000000000000000005C
:10347000000000000000000000000000000000004C
:10348000000000000000000000000000000000003C
:103490000000000010000000000000000A00000012
:1034A0000B0000000C000000000000000000000005
:1034B000000000000000000000000000000000000C
:1034C00000000000000000000000000000000000FC
:1034D00000000000000000000000000000000000EC
:1034E00010000000000000000A0000000B000000B7
:1034F0000C000000000000000000000000000000C0
:1035000000000000000000000000000000000000BB
:1035100000000000000000000000000000000000AB
:10352000000000000000000000000000100000008B
:10353000000000000A0000000B0000000C0000006A
:10354000000000000000000000000000000000007B
:10355000000000000000000000000000000000006B
:10356000000000000000000000000000000000005B
:10357000000000000000000010000000000000003B
:103580000A0000000B0000000C000000000000001A
:10359000000000000000000000000000000000002B
:1035A000000000000000000000000000000000001B
:1035B000000000000000000000000000000000000B
:1035C0000000000010000000000000000A000000E1
:1035D0000B0000000C0000000000000000000000D4
:1035E00000000000000000000000000000000000DB
:1035F00000000000000000000000000000000000CB
:1036000000000000000000000000000000000000BA
:1036100010000000000000000A0000000B00000085
:103620000C0000000000000000000000000000008E
:10363000000000000000000000000000000000008A
:10364000000000000000000000000000000000007A
:10365000000000000000000000000000100000005A
:10366000000000000A0000000B0000000C00000039
:10367000000000000000000000000000000000004A
:10368000000000000000000000000000000000003A
:10369000000000000000000000000000000000002A
:1036A000000000000000000010000000000000000A
:1036B0000A0000000B0000000C00000000000000E9
:1036C00000000000000000000000000000000000FA
:1036D00000000000000000000000000000000000EA
:1036E00000000000000000000000000001000000D9
:0436F00001000000D5
:0400000508000000EF
:00000001FF
