:020000040800F2
:10000000C80B00200D0100084923000855230008F3
:100010005D230008652300086D2300080000000030
:100020000000000000000000000000007523000830
:1000300081230008000000008D2300089923000898
:1000400071010008710100087101000871010008C8
:1000500071010008710100087101000871010008B8
:1000600071010008710100087101000871010008A8
:100070007101000871010008710100087101000898
:10008000710100087101000871010008FD100008ED
:100090005111000871010008811100087101000868
:1000A00071010008E12300087101000871010008D6
:1000B0004D240008AD240008000000007101000874
:1000C000710100080000000000000000710100083C
:1000D0000000000071010008112800080000000065
:1000E00071010008710100087101000800000000A2
:1000F0000000000000000000000000000000000000
:1001000000000000000000005FF808F180B582B038
:1001100000AF42F6C813C0F600037B6040F2000354
:10012000C2F200033B6007E03B681A1D3A607A6840
:10013000111D796012681A603A6840F25843C2F2A1
:1001400000039A42F0D3084808494FF00002884261
:10015000B8BF40F8042BFADB00F048F801F01CF8B7
:100160000837BD4680BD000058040020C8070020A5
:1001700080B400AFFEE700BF80B483B000AF78600A
:100180000B467B807B88DB439AB27B681A820C37F4
:10019000BD465DF8047B704780B485B000AF7860E1
:1001A0000B467B800023FB730023BB8100237B81F4
:1001B0007B681B8A9AB27B881340BB817B689B89D2
:1001C0009AB27B8813407B81BB89002B05D07B8949
:1001D000002B02D00123FB7301E00023FB73FB7BA8
:1001E00018461437BD465DF8047B704780B500AFF4
:1001F0004FF48053C4F202034FF48052C4F202025F
:10020000126842F001021A604FF48052C4F20202F6
:100210004FF48053C4F2020359680023CFF6FF0362
:100220000B4053604FF48053C4F202034FF48052EA
:10023000C4F20202126822F0847222F480321A6040
:100240004FF48053C4F202034FF48052C4F202020E
:10025000126822F480221A604FF48053C4F2020321
:100260004FF48052C4F20202526822F4FE025A6035
:100270004FF48053C4F202034FF41F029A6000F05F
:1002800009F84FF46D43CEF200034FF000629A601C
:1002900080BD00BF80B500AF00F002F880BD00BF98
:1002A00080B483B000AF00237B6000233B604FF439
:1002B0008053C4F202034FF48052C4F20202126867
:1002C00042F480321A604FF48053C4F202031B6878
:1002D00003F400333B607B6801337B603B68002B99
:1002E00003D17B68B3F5A06FEDD14FF48053C4F216
:1002F00002031B6803F40033002B02D001233B6090
:1003000001E000233B603B68012B40F094804FF4F8
:100310000053C4F202034FF40052C4F20202126806
:1003200042F010021A604FF40053C4F202034FF47B
:100330000052C4F20202126822F003021A604FF463
:100340000053C4F202034FF40052C4F202021268D6
:1003500042F002021A604FF48053C4F202034FF4D9
:100360008052C4F2020252685A604FF48053C4F2C1
:1003700002034FF48052C4F2020252685A604FF4F2
:100380008053C4F202034FF48052C4F20202526856
:1003900042F480625A604FF48053C4F202034FF477
:1003A0008052C4F20202526822F47C125A604FF466
:1003B0008053C4F202034FF48052C4F20202526826
:1003C00042F4E8125A604FF48053C4F202034FF42F
:1003D0008052C4F20202126842F080721A6000BFBA
:1003E0004FF48053C4F202031B6803F00073002B28
:1003F000F6D04FF48053C4F202034FF48052C4F29B
:100400000202526822F003025A604FF48053C4F291
:1004100002034FF48052C4F20202526842F0020218
:100420005A6000BF4FF48053C4F202035B6803F0CC
:100430000C03082BF6D10C37BD465DF8047B7047E2
:1004400080B582B000AF78607A684FF4C843C4F2D8
:1004500000039A420AD14FF00070012101F0A8FD7B
:100460004FF00070002101F0A3FD09E04FF0806023
:10047000012101F09DFD4FF08060002101F098FD09
:100480000837BD4680BD00BF80B485B000AF78603E
:1004900039600023FB730023BB607B681B6823F07B
:1004A00002027B681A607B681B6843F001027B686C
:1004B0001A6002E0BB680133BB607B685B6803F0D5
:1004C0000103002B04D1BA684FF6FF739A42F1D1B1
:1004D0007B685B6803F00103002B02D10023FB73F0
:1004E0009CE03B689B79012B06D17B681B6843F03D
:1004F00080027B681A6005E07B681B6823F080023D
:100500007B681A603B68DB79012B06D17B681B682E
:1005100043F040027B681A6005E07B681B6823F0AB
:1005200040027B681A603B681B7A012B06D17B680E
:100530001B6843F020027B681A6005E07B681B683B
:1005400023F020027B681A603B685B7A012B06D19E
:100550007B681B6843F010027B681A6005E07B68CB
:100560001B6823F010027B681A603B689B7A012BA2
:1005700006D17B681B6843F008027B681A6005E0BF
:100580007B681B6823F008027B681A603B68DB7A93
:10059000012B06D17B681B6843F004027B681A605C
:1005A00005E07B681B6823F004027B681A603B68E7
:1005B0009B789A073B68DB781B061A433B681B79DC
:1005C0001B041A433B685B791B051A433B681B8875
:1005D000013B1A437B68DA617B681B6823F00102E8
:1005E0007B681A600023BB6002E0BB680133BB601C
:1005F0007B685B6803F00103002B04D0BA684FF6F8
:10060000FF739A42F1D17B685B6803F00103002B12
:1006100002D00023FB7301E00123FB73FB7B184630
:100620001437BD465DF8047B704700BF80B485B0C9
:1006300000AF78600023FB607B689B7A012202FA9E
:1006400003F3FB604FF4C843C4F200034FF4C84205
:10065000C4F20002D2F8002242F00102C3F80022E4
:100660004FF4C843C4F200034FF4C842C4F200027E
:10067000D2F81C12FA68D2430A40C3F81C227B68E5
:100680001B7B002B2DD14FF4C843C4F200034FF461
:10069000C842C4F20002D2F80C12FA68D2430A40EF
:1006A000C3F80C224FF4C843C4F200037A68927A6C
:1006B0007968C9880804796849880143483243F851
:1006C00032104FF4C842C4F200027B689B7A79680A
:1006D000898808047968098801434833DB0013449A
:1006E00059607B681B7B012B2CD14FF4C843C4F2AB
:1006F00000034FF4C842C4F20002D2F80C12FA68A8
:100700000A43C3F80C224FF4C843C4F200037A68CA
:10071000927A7968098808047968498801434832DF
:1007200043F832104FF4C842C4F200027B689B7A4F
:100730007968898808047968C98801434833DB00EF
:10074000134459607B68DB7A002B0FD14FF4C84308
:10075000C4F200034FF4C842C4F20002D2F80412FB
:10076000FA68D2430A40C3F804220DE04FF4C843AC
:10077000C4F200034FF4C842C4F20002D2F80412DB
:10078000FA680A43C3F804227B681B89002B0ED148
:100790004FF4C843C4F200034FF4C842C4F200024D
:1007A000D2F81412FA68D2430A40C3F814227B68C4
:1007B0001B89012B0DD14FF4C843C4F200034FF441
:1007C000C842C4F20002D2F81412FA680A43C3F80D
:1007D00014227B685B7B012B0DD14FF4C843C4F21C
:1007E00000034FF4C842C4F20002D2F81C12FA68A7
:1007F0000A43C3F81C224FF4C843C4F200034FF469
:10080000C842C4F20002D2F8002222F00102C3F86A
:1008100000221437BD465DF8047B704780B485B074
:1008200000AF786039600023FB737B689B6803F03E
:100830008063002B02D00023FB7313E07B689B686E
:1008400003F00063002B02D00123FB730AE07B68F6
:100850009B6803F08053002B02D00223FB7301E05E
:100860000423FB73FB7B042B00F09880FB7BFA7B5B
:100870007968183212010A44126802F0010279689C
:1008800018331B010B441A603B681B7A002B13D1F1
:10089000FB7BFA7B7968183212010A4411683A68C6
:1008A000126850053A68527A02430A43796818334D
:1008B0001B010B441A6015E0FB7BFA7B7968183248
:1008C00012010A4411683A685268D0003A68127AF4
:1008D00010433A68527A02430A43796818331B017D
:1008E0000B441A603B689B7A03F00F03DAB23B6853
:1008F0009A72FB7BFA7B7968183212010A445268BB
:1009000022F00F02796818331B010B445A60FB7BFD
:10091000FA7B7968183212010A4451683A68927A6F
:100920000A43796818331B010B445A60FB7B3A6811
:10093000927B11063A68527B120411433A68127B8B
:10094000120211433A68D27A0A4379681B010B44B8
:1009500003F5C4731A60FB7B3A68927C11063A680F
:10096000527C120411433A68127C120211433A6815
:10097000D27B0A4379681B010B4403F5C4735A60A8
:10098000FB7BFA7B7968183212010A44126842F044
:100990000102796818331B010B441A60FB7B18466F
:1009A0001437BD465DF8047B704700BF80B485B046
:1009B00000AFF8600B467A60FB72FB7AFA681B3373
:1009C0001B0113441B68DBB203F00403DAB27B683B
:1009D0001A727B681B7A002B09D1FB7AFA681B33E9
:1009E0001B0113441B685A0D7B681A6008E0FB7AF0
:1009F000FA681B331B0113441B68DA087B685A60D2
:100A0000FB7AFA681B331B0113441B68DBB203F04B
:100A10000203DAB27B685A72FB7AFA681B331B0155
:100A200013445B68DBB203F00F03DAB27B689A729F
:100A3000FB7AFA681B331B0113445B681B0ADAB2AA
:100A40007B68DA74FB7AFA681B01134403F5DC73E4
:100A50001B68DAB27B68DA72FB7AFA681B0113440E
:100A600003F5DC731B681B0ADAB27B681A73FB7A26
:100A7000FA681B01134403F5DC731B681B0CDAB224
:100A80007B685A73FB7AFA681B01134403F5DC7325
:100A90001B681B0EDAB27B689A73FB7AFA681B013B
:100AA000134403F5DC735B68DAB27B68DA73FB7AB4
:100AB000FA681B01134403F5DC735B681B0ADAB2A6
:100AC0007B681A74FB7AFA681B01134403F5DC7324
:100AD0005B681B0CDAB27B685A74FB7AFA681B01FC
:100AE000134403F5DC735B681B0EDAB27B689A74FF
:100AF000FB7A002B06D1FB68DB6843F02002FB6821
:100B0000DA6005E0FB681B6943F02002FB681A61AC
:100B10001437BD465DF8047B704700BF80B485B0D4
:100B200000AF78600023FB737B689B691B0EFB732F
:100B3000FB7B18461437BD465DF8047B704700BF49
:100B400080B485B000AF78600023FB737B689B693D
:100B500003F47F031B0CFB73FB7B18461437BD4665
:100B60005DF8047B704700BF80B485B000AFF860CB
:100B7000B9601346FB71FB79002B06D0FB685A69FC
:100B8000BB681A43FB685A6106E0FB685A69BB6898
:100B9000DB431A40FB685A611437BD465DF8047B9D
:100BA000704700BF80B584B000AF78603960002323
:100BB000FB737B685A693B681340002B00F0B580DB
:100BC0003B68402B65D0402B0FD8042B3DD0042B25
:100BD00004D8012B24D0022B2ED0A2E0102B46D01B
:100BE000202B4DD0082B39D09BE0B3F5006F00F0DF
:100BF0008680B3F5006F09D8B3F5007F6DD0B3F5EB
:100C0000806F73D0B3F5807F5ED08AE0B3F5803F0C
:100C100048D0B3F5003F4ED0B3F5004F78D080E018
:100C20007B689B68184640F20111C0F2010100F098
:100C3000F3F80346FB7377E07B68DB681846032113
:100C400000F0EAF80346FB736EE07B68DB68184649
:100C5000082100F0E1F80346FB7365E07B68DB6880
:100C60001846102100F0D8F80346FB735CE07B685F
:100C70001B691846032100F0CFF80346FB7353E0CD
:100C80007B681B691846082100F0C6F80346FB7311
:100C90004AE07B681B691846102100F0BDF8034646
:100CA000FB7341E07B685B681846082100F0B4F8EC
:100CB0000346FB7338E07B685B681846102100F040
:100CC000ABF80346FB732FE07B689B691846012154
:100CD00000F0A2F80346FB7326E07B689B69184688
:100CE000022100F099F80346FB731DE07B689B69C5
:100CF0001846042100F090F80346FB7314E07B686B
:100D00009B691846702100F087F80346FB730BE0DF
:100D10007B685B681846042100F07EF80346FB738D
:100D200002E00023FB7300BF01E00023FB73FB7BA9
:100D300018461037BD4680BD80B483B000AF7860E0
:100D400039603B68B3F5807F46D0B3F5807F0DD81E
:100D5000082B2DD0082B04D8012B1ED0042B23D018
:100D600054E0202B28D0402B2AD04FE0B3F5006F61
:100D70003ED0B3F5006F06D8B3F5007F30D0B3F5A1
:100D8000806F31D042E0B3F5803F1DD0B3F5003F16
:100D90001ED0B3F5004F32D038E07A6840F201132C
:100DA000C0F20103936031E07B680822DA602DE035
:100DB0007B681022DA6029E07B6808221A6125E04E
:100DC0007B6810221A6121E07B6808225A601DE0CE
:100DD0007B6810225A6019E07B6804225A6015E093
:100DE0007B6804225A6011E07B6804225A600DE09F
:100DF0007B6800229A617B6804225A6006E07B6867
:100E000000229A617B6804225A6000BF0C37BD46FD
:100E10005DF8047B704700BF80B485B000AF786098
:100E200039600023FB737A683B681340002B02D0C3
:100E30000123FB7301E00023FB73FB7B184614378F
:100E4000BD465DF8047B704780B489B000AF786020
:100E500039600023FB6100233B610023BB61002359
:100E6000FB6000237B610023BB603B68DB7803F001
:100E70000F03FB613B68DB7803F01003002B04D009
:100E80003B689B78FA691343FB613B681B88DBB2C4
:100E9000002B44D07B681B687B610023BB6138E07A
:100EA000BB69012202FA03F3FB603B681B881A4608
:100EB000FB6813403B613A69FB689A4226D1BB69E3
:100EC0009B00FB60FB680F2202FA03F3BB60BB6868
:100ED000DB437A6913407B61FB68FA6902FA03F32A
:100EE0007A6913437B613B68DB78282B05D1BB69AA
:100EF00001229A407B685A6108E03B68DB78482B06
:100F000004D1BB6901229A407B681A61BB69013335
:100F1000BB61BB69072BC3D97B687A691A603B68E0
:100F20001B88FF2B46D97B685B687B610023BB6114
:100F30003AE0BB690833012202FA03F3FB603B6825
:100F40001B881A46FB6813403B613A69FB689A426A
:100F500027D1BB699B00FB60FB680F2202FA03F3F9
:100F6000BB60BB68DB437A6913407B61FB68FA694D
:100F700002FA03F37A6913437B613B68DB78282B21
:100F800005D1BB69083301229A407B685A613B68EE
:100F9000DB78482B05D1BB69083301229A407B6876
:100FA0001A61BB690133BB61BB69072BC1D97B687F
:100FB0007A695A602437BD465DF8047B704700BFEC
:100FC00080B483B000AF786013460A467A807B70A5
:100FD0007B78002B03D07A887B681A6102E07A88DC
:100FE0007B685A610C37BD465DF8047B704700BFD3
:100FF00080B483B000AF03463960FB7197F90730C6
:10100000002B0EDA4FF46D43CEF20003FA7902F0B2
:101010000F02111F3A68D2B21201D2B20B441A76F3
:101020000CE04FF46143CEF2000397F907103A68E1
:10103000D2B21201D2B20B4483F800230C37BD4662
:101040005DF8047B704700BF80B582B000AF786068
:101050007B68B3F1807F01D301231AE04EF21003C5
:10106000CEF200037A6822F07F42013A5A604FF0D4
:10107000FF300F21FFF7BCFF4EF21003CEF200034A
:1010800000229A604EF21003CEF2000307221A608B
:10109000002318460837BD4680BD00BF80B582B02A
:1010A00000AFFFF7A3F840F20003C2F200031A6892
:1010B00044F6D353C1F26203A3FB02139B09184603
:1010C000FFF7C2FF0420012100F022FF4FF48063EC
:1010D000BB800323BB711023FB713B1D4FF40060E9
:1010E000C4F201001946FFF7AFFE01F0B7FA00F0B5
:1010F000E9FB01F011FA0837BD4680BD80B500AFAD
:101100004FF4C840C4F200000121FFF74BFD034635
:10111000002B1CD040F22463C2F20003DB7A0133BF
:10112000DAB240F22463C2F20003DA724FF4C8402C
:10113000C4F2000040F22461C2F20001FFF76EFB2E
:101140004FF4C840C4F200000121FFF7F5FD80BD57
:1011500080B500AF4FF4C840C4F200000221FFF791
:1011600021FD0346002B0AD04FF4C840C4F2000012
:10117000002140F28042C2F20002FFF717FC80BD5E
:1011800080B500AF4FF40060C4F201004FF48061FD
:101190000122FFF715FF80BD2DE9F047C6B006AF6D
:1011A0003A1DFA23104600211A4601F093FB012351
:1011B00087F8FF30FFF772FF40F22463C2F20003AA
:1011C00001221A6040F22463C2F2000300225A6036
:1011D00040F22463C2F2000300221A7240F2246338
:1011E000C2F2000300225A7240F22463C2F20003EA
:1011F00001229A7240F22463C2F20003AB22DA7237
:101200004FF4C840C4F2000040F22461C2F2000171
:10121000FFF704FB40F25C43C2F200031B68002BA3
:1012200039D140F25C43C2F200030A221A6097F8F7
:10123000FF30002B22D0002387F8FF304FF40060EE
:10124000C4F201004FF480610022FFF7B9FE40F2C2
:101250002463C2F20003DB7A0133DAB240F2246382
:10126000C2F20003DA724FF4C840C4F2000040F248
:101270002461C2F20001FFF7D1FA0CE0012387F8E4
:10128000FF304FF40060C4F201004FF4806101228E
:10129000FFF796FE49E048E040F25843C2F20003EF
:1012A00000221A6040F28043C2F200031D6840F23F
:1012B0008043C2F200031B7A1C4640F28043C2F214
:1012C00000035B7A9A4640F28043C2F200039B7AA5
:1012D000994640F28043C2F20003DB7A98464FF40D
:1012E000C840C4F20000FFF719FC03461E464FF445
:1012F000C840C4F20000FFF723FC03461A463B1D1A
:10130000CDF800A0CDF80490CDF8088003960492A3
:10131000184642F67411C0F600012A46234600F032
:10132000BBFA3B1D184601F02FFA40F25843C2F2B7
:1013300000031B68B3F5FA7FAED86BE780B483B0C7
:1013400000AF78600B46FB707B68FA781A70012357
:1013500018460C37BD465DF8047B704780B485B0F5
:1013600000AF786039600023FB600AE07B685A1C9C
:101370007A603A68511C396012781A70FB68013340
:10138000FB603B681B78002BF0D1FB6818461437D4
:10139000BD465DF8047B704780B586B000AFF8604D
:1013A0007A603B600B46FB7200237B617B68013BEC
:1013B0007B603B68092B13D93A684CF6CD43CCF6D9
:1013C000CC43A3FB0213DB08FA7AF86811467A686B
:1013D000FFF7E2FF78617B69FA681344FB6011E074
:1013E0000DE0FB7AF8681946FFF7A8FFFB680133A8
:1013F000FB607B6901337B617B68013B7B607B68C1
:10140000002BEEDC39684CF6CD43CCF6CC43A3FB85
:101410000123DA0813469B0013445B00CA1AD3B2B7
:101420003033DBB2F8681946FFF788FF03467A6964
:1014300013447B617B6918461837BD4680BD00BFE9
:1014400080B586B000AFF8607A603B600B46FB72F7
:1014500000237B613B68002B03DA3B685B423B6106
:1014600001E03B683B617B68013B7B603B69092B8A
:1014700027D93B68002B10DA3A694CF6CD43CCF6FD
:10148000CC43A3FB0213DB085B42FA7AF8681146EF
:101490007A68FFF7D5FF78610EE03A694CF6CD43E4
:1014A000CCF6CC43A3FB0213DB08FA7AF8681146AA
:1014B0007A68FFF7C5FF78617B69FA681344FB60BF
:1014C00026E03B68002B03DA7B68013B7B600EE083
:1014D0000DE0FB7AF8681946FFF730FFFB6801332F
:1014E000FB607B6901337B617B68013B7B607B68D0
:1014F000002BEEDC3B68002B0ADAF8682D21FFF7A1
:101500001DFF03467A6913447B61FB680133FB606E
:1015100039694CF6CD43CCF6CC43A3FB0123DA0862
:1015200013469B0013445B00CA1AD3B23033DBB2BC
:10153000F8681946FFF702FF03467A6913447B6196
:101540007B6918461837BD4680BD00BF80B588B09E
:1015500002AFF8607A600A46FA72BB7200237B61C0
:101560007B68013B7B603B6A1B09002B12D03B6A06
:101570001909FA7ABB7A0091F86811467A68FFF780
:10158000E5FF03467A6913447B617B69FA6813447B
:10159000FB6011E00DE0FB7AF8681946FFF7CEFE1C
:1015A000FB680133FB607B6901337B617B68013B36
:1015B0007B607B68002BEEDC3B6A03F00F03092B9A
:1015C0000BD83B6ADBB203F00F03DBB23033DBB284
:1015D000F8681946FFF7B2FE19E0BB7A002B0BD072
:1015E0003B6ADBB203F00F03DBB23733DBB2F868E0
:1015F0001946FFF7A3FE0AE03B6ADBB203F00F03D4
:10160000DBB25733DBB2F8681946FFF797FE7B6908
:1016100001337B617B6918461837BD4680BD00BF2A
:1016200080B58AB002AFF860B9607A603B60002391
:10163000BB6100237B61FB68002B03D0FB680022A9
:101640001A70F8E0F7E07B681B78252B0BD0FB685D
:101650005A1CFA607A68511C796012781A707B699A
:1016600001337B61E7E07B6801331B78252B0BD1CD
:10167000FB685A1CFA6025221A707B6802337B6073
:101680007B6901337B61D6E02023FB770023BB77A6
:101690007B6801337B607B681B78302B05D130235E
:1016A000FB777B6801337B600FE00EE0BB7F1A465F
:1016B000920013445B00DAB27B681B781344DBB200
:1016C000303BBB777B6801337B607B681B782F2BBB
:1016D00003D97B681B78392BE8D9BA7F7B6913441F
:1016E0001A46BB689A4205D9BB68DAB27B69DBB29D
:1016F000D31ABB777B681B78583B202B00F28D8078
:1017000001A252F823F000BFD51700081B180008EB
:101710001B1800081B1800081B1800081B180008DD
:101720001B1800081B1800081B1800081B180008CD
:101730001B180008051800088D1700081B18000862
:101740001B1800081B1800081B1800088D1700083C
:101750001B1800081B1800081B1800081B1800089D
:101760001B1800081B1800081B1800081B1800088D
:101770001B180008F11700081B180008A317000821
:101780001B1800081B180008B9170008BA7F3B682F
:10179000191D39601B68F97FF868FFF751FEB861C1
:1017A0003EE0BA7F3B68191D39601B68F97FF86815
:1017B000FFF7F2FDB86133E0BA7F3B68191D39606D
:1017C0001968FB7F0091F86819460023FFF7BEFEF9
:1017D000B86125E0BA7F3B68191D39601968FB7F45
:1017E0000091F86819460123FFF7B0FEB86117E0D1
:1017F0003B681A1D3A601B68F8681946FFF7AEFD92
:10180000B8610DE03B681A1D3A601B68DBB2F868EE
:101810001946FFF793FDB86102E04FF0FF3325E072
:101820007B6801337B60BB69FA681344FB607A69AB
:10183000BB6913447B617B681B78002B04D07A69F9
:10184000BB689A42FFF4FFAE7A69BB689A4203D242
:10185000FB6800221A7008E0FB68013BFB60FB6834
:1018600000221A707B69013B7B617B691846203737
:10187000BD4680BD80B584B000AFF860B9607A60C5
:10188000F8686421BA687B68FFF7CAFE0346184609
:101890001037BD4680BD00BF0EB480B585B000AF27
:1018A000786007F12003BB607868F969BA68FFF7D0
:1018B000E1FFF860FB6818461437BD46BDE880407C
:1018C00003B0704780B58AB000AF00237B624FF44D
:1018D000C840C4F20000FEF7B3FD0420012100F06F
:1018E00017FB4FF00070012100F03AFB4FF400634A
:1018F0003B84182387F82330032387F8223007F12D
:1019000020034FF40060C4F201001946FFF79CFA6F
:101910004FF480533B84182387F8233007F12003CA
:101920004FF40060C4F201001946FFF78DFA01235D
:10193000BB760023FB7600233B7700237B770023D5
:10194000BB770023FB770123BB750023FB750423C2
:101950003B7605237B760323BB8207F114034FF408
:10196000C840C4F200001946FEF78EFDE3E17B6A31
:10197000DBB2BB730023BB8140F21403C2F200034D
:101980007A6A4C2101FB02F213441B68002B00F021
:10199000C98101237B7440F21403C2F200037A6A06
:1019A0004C2101FB02F2134404331B68012B02D1CA
:1019B0000023FB730EE040F21403C2F200037A6AC4
:1019C0004C2101FB02F2134404331B68002B01D1AC
:1019D0000123FB7340F21403C2F200037A6A4C2124
:1019E00001FB02F2134408331B68102B40F0F38014
:1019F00000233B7440F21403C2F200037A6A4C21C4
:101A000001FB02F213440C331B685B019AB240F2F3
:101A10001403C2F20003796A4C2000FB01F10B446D
:101A20001C331B681B019BB213439AB240F2140390
:101A3000C2F20003796A4C2000FB01F10B442C3305
:101A40001B68DB009BB213439AB240F21403C2F24C
:101A50000003796A4C2000FB01F10B443C331B6806
:101A6000DB139BB213439BB29BB2FB8040F2140387
:101A7000C2F200037A6A4C2101FB02F213441033D4
:101A80001B685B019AB240F21403C2F20003796A48
:101A90004C2000FB01F10B4420331B681B019BB25F
:101AA00013439AB240F21403C2F20003796A4C2045
:101AB00000FB01F10B4430331B68DB009BB2134386
:101AC0009AB240F21403C2F20003796A4C2000FB80
:101AD00001F10B4440331B68DB139BB213439BB2F1
:101AE0009BB27B8140F21403C2F200037A6A4C215C
:101AF00001FB02F2134414331B685B019AB240F2FB
:101B00001403C2F20003796A4C2000FB01F10B447C
:101B100024331B681B019BB213439AB240F2140397
:101B2000C2F20003796A4C2000FB01F10B4434330C
:101B30001B68DB009BB213439AB240F21403C2F25B
:101B40000003796A4C2000FB01F10B4444331B680D
:101B5000DB139BB213439BB29BB2BB8040F21403D6
:101B6000C2F200037A6A4C2101FB02F213441833DB
:101B70001B685B019AB240F21403C2F20003796A57
:101B80004C2000FB01F10B4428331B681B019BB266
:101B900013439AB240F21403C2F20003796A4C2054
:101BA00000FB01F10B4438331B68DB009BB213438D
:101BB0009AB240F21403C2F20003796A4C2000FB8F
:101BC00001F10B4448331B68DB139BB213439BB2F8
:101BD0009BB23B81A8E040F21403C2F200037A6A90
:101BE0004C2101FB02F2134408331B68202B40F008
:101BF0009B8001233B7440F21403C2F200037A6A13
:101C00004C2101FB02F213443C331B68DB009AB207
:101C100040F21403C2F20003796A4C2000FB01F188
:101C20000B442C331B689B009BB213439AB240F2C7
:101C30001403C2F20003796A4C2000FB01F10B444B
:101C40001C331B685B009BB213439BB29BB2FB80AF
:101C500040F21403C2F200037A6A4C2101FB02F243
:101C600013440C331B685B019AB240F21403C2F2B6
:101C70000003796A4C2000FB01F10B443C331B68E4
:101C80005B139BB213439BB29BB27B8140F2140364
:101C9000C2F200037A6A4C2101FB02F21344403382
:101CA0001B68DB009AB240F21403C2F20003796AA7
:101CB0004C2000FB01F10B4430331B689B009BB2AE
:101CC00013439AB240F21403C2F20003796A4C2023
:101CD00000FB01F10B4420331B685B009BB21343F4
:101CE0009BB29BB2BB8040F21403C2F200037A6A3B
:101CF0004C2101FB02F2134410331B685B019AB2C2
:101D000040F21403C2F20003796A4C2000FB01F197
:101D10000B4440331B685B139BB213439BB29BB2D3
:101D20003B8101E000237B743B1D1846FEF77EFCDF
:101D30007B6A01337B627B6A0D2B7FF718AE4FF411
:101D4000C840C4F2000002210122FEF70DFF28372F
:101D5000BD4680BD80B487B000AF786000237B6152
:101D600000233B610023FB600023BB604FF48053E2
:101D7000C4F202035B6803F00C037B617B69042BF4
:101D80000AD0082B0FD0002B4CD17A684FF4905317
:101D9000C0F27A0313604CE07A684FF49053C0F2BB
:101DA0007A03136045E04FF48053C4F202035B688A
:101DB00003F470133B614FF48053C4F202035B6879
:101DC00003F48033FB603B699B0C02333B61FB688F
:101DD000002B09D13A694FF41063C0F23D0303FBB5
:101DE00002F27B681A601CE04FF48053C4F20203D5
:101DF0005B6803F40033002B09D03A694FF4106399
:101E0000C0F23D0303FB02F27B681A6009E03A6905
:101E10004FF49053C0F27A0303FB02F27B681A601E
:101E200007E006E07A684FF49053C0F27A0313603B
:101E300000BF4FF48053C4F202035B6803F0F00369
:101E40007B617B691B097B6140F23C43C2F200036A
:101E50007A6913441B78DBB2BB607B681A68BB6885
:101E6000DA407B685A604FF48053C4F202035B6827
:101E700003F4E0637B617B691B0A7B6140F23C43B6
:101E8000C2F200037A6913441B78DBB2BB607B6843
:101E90005A68BB68DA407B689A604FF48053C4F29A
:101EA00002035B6803F460537B617B69DB0A7B613F
:101EB00040F23C43C2F200037A6913441B78DBB260
:101EC000BB607B685A68BB68DA407B68DA604FF4B5
:101ED0008053C4F202035B6803F440437B617B6977
:101EE0009B0B7B6140F24C43C2F200037A691344BE
:101EF0001B78DBB2BB607B68DA68BB68B2FBF3F2CD
:101F00007B681A611C37BD465DF8047B704700BFD3
:101F100080B483B000AF78600B46FB70FB78002B79
:101F20000CD04FF48053C4F202034FF48052C4F239
:101F3000020291697A680A439A610CE04FF4805377
:101F4000C4F202034FF48052C4F2020291697A682B
:101F5000D2430A409A610C37BD465DF8047B704756
:101F600080B483B000AF78600B46FB70FB78002B29
:101F70000CD04FF48053C4F202034FF48052C4F2E9
:101F80000202D1697A680A43DA610CE04FF48053A7
:101F9000C4F202034FF48052C4F20202D1697A689B
:101FA000D2430A40DA610C37BD465DF8047B7047C6
:101FB00080B483B000AF78600B46FB70FB78002BD9
:101FC0000CD04FF48053C4F202034FF48052C4F299
:101FD000020211697A680A431A610CE04FF48053D7
:101FE000C4F202034FF48052C4F2020211697A680B
:101FF000D2430A401A610C37BD465DF8047B704736
:1020000080B58CB000AF786039600023FB6200239C
:10201000BB6200237B6200233B620023FB617B6881
:10202000FB617B681B8A9BB2FB62FA6A4CF6FF730A
:102030001340FB623B68DB88FA6A1343FB62FB6A6E
:102040009AB27B681A827B689B899BB2FB62FA6AB0
:102050004EF6F3131340FB623B689A883B681B897A
:1020600013439AB23B685B8913439BB2FA6A1343EA
:10207000FB62FB6A9AB27B689A817B689B8A9BB2FF
:10208000FB62FA6A4FF6FF431340FB623B689B8991
:10209000FA6A1343FB62FB6A9AB27B689A8207F181
:1020A00008031846FFF756FEFA694FF46053C4F26E
:1020B00001039A4202D17B69BB6201E03B69BB62CA
:1020C0007B689B899BB29BB21BB2002B0CDABA6A6D
:1020D00013469B0013449A001A443B681B685B003C
:1020E000B2FBF3F37B620BE0BA6A13469B00134426
:1020F0009A001A443B681B689B00B2FBF3F37B62B7
:102100007A6A48F21F53C5F2EB13A3FB02135B0973
:102110001B01FB62FB6A1B09642202FB03F37A6A60
:10212000D31A3B627B689B899BB29BB21BB2002B8C
:1021300010DA3B6ADB0003F1320248F21F53C5F2AA
:10214000EB13A3FB02135B0903F00703FA6A1343C3
:10215000FB620FE03B6A1B0103F1320248F21F539E
:10216000C5F2EB13A3FB02135B0903F00F03FA6A3A
:102170001343FB62FB6A9AB27B681A813037BD4613
:1021800080BD00BF80B483B000AF78600B46FB70A9
:10219000FB78002B08D07B689B899BB243F40053EB
:1021A0009AB27B689A8107E07B689B899BB223F493
:1021B00000539AB27B689A810C37BD465DF8047B68
:1021C000704700BF80B487B000AF786013460A46FE
:1021D0007A807B7000233B610023FB600023BB609F
:1021E00000237B617B687B617B88DBB25B09DBB2B0
:1021F0003B617B8803F01F03FB60FB68012202FA4E
:1022000003F3BB603B69012B03D17B690C337B611A
:1022100009E03B69022B03D17B6910337B6102E04B
:102220007B6914337B617B78002B06D07B697A69EC
:102230001168BA680A431A6006E07B697A69116816
:10224000BA68D2430A401A601C37BD465DF8047B69
:10225000704700BF80B483B000AF78600B467B80CE
:102260007B88C3F308039AB27B689A800C37BD461B
:102270005DF8047B704700BF80B483B000AF786026
:102280007B689B889BB2C3F308039BB218460C374C
:10229000BD465DF8047B704780B487B000AF7860BE
:1022A0000B467B800023FB6000237B610023BB6027
:1022B0000023FB747B88DBB25B09DBB2BB607B88ED
:1022C00003F01F037B617B69012202FA03F37B6148
:1022D000BB68012B06D17B689B899BB27A6913404E
:1022E0007B610FE0BB68022B06D17B681B8A9BB227
:1022F0007A6913407B6105E07B689B8A9BB27A69AF
:1023000013407B617B881B0A9BB2FB60FB68012248
:1023100002FA03F3FB607B681B889BB2FA681340E8
:10232000FB607B69002B05D0FB68002B02D00123EA
:10233000FB7401E00023FB74FB7C18461C37BD4690
:102340005DF8047B704700BF80B400AFBD465DF808
:10235000047B704780B400AFFEE700BF80B400AFDD
:10236000FEE700BF80B400AFFEE700BF80B400AF5F
:10237000FEE700BF80B400AFBD465DF8047B704748
:1023800080B400AFBD465DF8047B704780B400AFF9
:10239000BD465DF8047B704780B400AF40F25843FF
:1023A000C2F200031B685A1C40F25843C2F20003F9
:1023B0001A6040F25C43C2F200031B68002B0AD093
:1023C00040F25C43C2F200031B685A1E40F25C43B9
:1023D000C2F200031A60BD465DF8047B704700BF7F
:1023E00080B500AF4FF43050C4F201000121FDF779
:1023F000D3FE0346002B28D04FF43053C4F2010320
:102400001B889BB203F010031B11002B0BD140F271
:102410006043C2F200031B685A1C40F26043C2F2E0
:1024200000031A600AE040F26443C2F200031B6832
:102430005A1C40F26443C2F200031A604FF4305059
:10244000C4F201000121FDF797FE80BD80B500AF09
:102450004FF080400121FDF79FFE0346002B24D062
:102460004FF080431B889BB203F010031B11002B1D
:102470000BD140F26843C2F200031B685A1C40F2C1
:102480006843C2F200031A600AE040F26C43C2F2F1
:1024900000031B685A1C40F26C43C2F200031A602E
:1024A0004FF080400121FDF767FE80BD80B500AF91
:1024B0004FF48060C4F200000121FDF76DFE034679
:1024C000002B28D04FF48063C4F200031B889BB21A
:1024D00003F010031B11002B0BD140F27043C2F22A
:1024E00000031B685A1C40F27043C2F200031A60DA
:1024F0000AE040F27443C2F200031B685A1C40F227
:102500007443C2F200031A604FF48060C4F200000A
:102510000121FDF731FE80BD80B582B000AF4FF4E0
:10252000C06000F01FF826233B7102237B7100235B
:10253000BB710123FB713B1D184600F027F84FF4D7
:10254000E06000F00FF814233B7100237B7100233F
:10255000BB710123FB713B1D184600F017F80837CB
:10256000BD4680BD80B483B000AF78604FF46D434A
:10257000CEF200037A6842F0BF6242F40032DA60C1
:102580000C37BD465DF8047B704700BF80B487B050
:1025900000AF786000237B6100233B610F23FB6069
:1025A0007B68DB78002B42D04FF46D43CEF2000302
:1025B000DB68DB4303F4E0631B0A7B617B69C3F1E7
:1025C00004033B617B69FA6822FA03F3FB607B68D2
:1025D0005B781A463B6902FA03F37B617B689B7860
:1025E0001A46FB6813407A6913437B617B691B01C0
:1025F0007B614FF46143CEF200037A681278114692
:102600007A69D2B20B4483F800234FF46143CEF2CF
:1026100000037A6812785209D2B27968097801F019
:102620001F01012000FA01F143F8221011E04FF4DC
:102630006143CEF200037A6812785209D2B2796807
:10264000097801F01F01012000FA01F1203243F85E
:1026500022101C37BD465DF8047B704780B586B0FC
:1026600000AF4FF400300121FFF77AFC0420012174
:10267000FFF74EFC0423BB821823FB750323BB75B5
:1026800007F114034FF40060C4F201001946FEF78D
:10269000DBFB0823BB820423FB750323BB7507F117
:1026A00014034FF40060C4F201001946FEF7CCFB9E
:1026B0004FF4E1337B6000233B8100237B810023C7
:1026C000BB8100233B820C23FB813B1D4FF48840E0
:1026D000C4F200001946FFF793FC4FF48840C4F29F
:1026E000000040F225510122FFF76CFD4FF48840B5
:1026F000C4F200000121FFF745FD1837BD4680BD3B
:1027000080B582B000AF0346FB714FF48840C4F23D
:10271000000040F227710022FFF754FD40F25043C1
:10272000C2F200031A6840F23863C2F20003F9797A
:10273000995440F25043C2F200031B685A1C40F205
:102740005043C2F200031A6040F25043C2F2000349
:102750001B68C72B05DD40F27843C2F2000300225C
:102760001A6040F25043C2F2000301221A604FF493
:102770008840C4F2000040F227710122FFF722FDD9
:102780000837BD4680BD00BF80B582B000AF78601D
:102790004FF48840C4F2000040F227710022FFF796
:1027A00011FD25E040F25043C2F200031A687B6835
:1027B000591C7960197840F23863C2F200039954C9
:1027C00040F25043C2F200031B685A1C40F25043CF
:1027D000C2F200031A6040F25043C2F200031B68C9
:1027E000C72B05DD40F25043C2F2000300221A60FD
:1027F0007B681B78002BD5D14FF48840C4F20000D1
:1028000040F227710122FFF7DDFC0837BD4680BD8D
:1028100080B582B000AF4FF48840C4F2000040F2AF
:102820002551FFF739FD0346002B0BD04FF48840AC
:10283000C4F20000FFF720FD0346FB71FB79184648
:10284000FFF75EFF4FF48840C4F2000040F22771AA
:10285000FFF722FD0346002B39D040F27843C2F245
:1028600000031B681A46511C40F27843C2F2000371
:10287000196040F23863C2F200039B5C4FF4884059
:10288000C4F200001946FFF7E5FC40F27843C2F2BB
:1028900000031B68C72B05DD40F27843C2F200033A
:1028A00000221A6040F27843C2F200031A6840F234
:1028B0005043C2F200031B689A4208D14FF488408B
:1028C000C4F2000040F227710022FFF77BFC0837BA
:1028D000BD4680BD8307F0B448D0541E002A43D0C3
:1028E000CDB2034602E0002C3ED0144603F8015B53
:1028F00013F0030F04F1FF32F5D1032C2DD9CDB223
:102900000F2C45EA052545EA054518D9A4F110071D
:1029100003F110061A463F0906EB07161560103240
:1029200042F80C5C42F8085C42F8045CB242F5D113
:1029300004F00F040137032C03EB07130DD91E46D7
:102940002246043A46F8045B032AFAD8221F04F010
:10295000030422F00302043213442CB1C9B21C4414
:1029600003F8011BA342FBD1F0BC70471446034699
:10297000C3E700BF537449643A30782558200A0DE4
:102980004944453A2564200A0D5254523A256420A0
:102990000A0D444C433A2558200A0D446174615B8A
:1029A000305D3A30782558200A0D526572726F7288
:1029B0003A2564200A0D546572726F723A256420BC
:0829C0000A0D0A0D00000000E1
:1029C80000A24A0400000000000000000102030405
:1029D80006070809010000000000000010000000C0
:1029E80001000000000000000000000000000000DE
:1029F80000000000000000000000000000000000CF
:102A080000000000000000000000000000000000BE
:102A180000000000000000000000000000000000AE
:102A2800010000000100000010000000010000008B
:102A3800000000000000000000000000000000008E
:102A4800000000000000000000000000000000007E
:102A5800000000000000000000000000000000006E
:102A6800000000000000000000000000000000005E
:102A7800000000002000000000000000000000002E
:102A8800000000000000000000000000000000003E
:102A9800000000000000000000000000000000002E
:102AA800000000000000000000000000000000001E
:102AB800000000000000000000000000010000000D
:102AC80020000000000000000000000000000000DE
:102AD80000000000000000000000000000000000EE
:102AE80000000000000000000000000000000000DE
:102AF80000000000000000000000000000000000CE
:102B080000000000000000000000000010000000AD
:102B1800000000000A0000000B0000000C0000008C
:102B2800000000000000000000000000000000009D
:102B3800000000000000000000000000000000008D
:102B4800000000000000000000000000000000007D
:102B5800000000000000000010000000000000005D
:102B68000A0000000B0000000C000000000000003C
:102B7800000000000000000000000000000000004D
:102B8800000000000000000000000000000000003D
:102B9800000000000000000000000000000000002D
:102BA8000000000010000000000000000A00000003
:102BB8000B0000000C0000000000000000000000F6
:102BC80000000000000000000000000000000000FD
:102BD80000000000000000000000000000000000ED
:102BE80000000000000000000000000000000000DD
:102BF80010000000000000000A0000000B000000A8
:102C08000C000000000000000000000000000000B0
:102C180000000000000000000000000000000000AC
:102C2800000000000000000000000000000000009C
:102C3800000000000000000000000000100000007C
:102C4800000000000A0000000B0000000C0000005B
:102C5800000000000000000000000000000000006C
:102C6800000000000000000000000000000000005C
:102C7800000000000000000000000000000000004C
:102C8800000000000000000010000000000000002C
:102C98000A0000000B0000000C000000000000000B
:102CA800000000000000000000000000000000001C
:102CB800000000000000000000000000000000000C
:102CC80000000000000000000000000000000000FC
:102CD8000000000010000000000000000A000000D2
:102CE8000B0000000C0000000000000000000000C5
:102CF80000000000000000000000000000000000CC
:102D080000000000000000000000000000000000BB
:102D180000000000000000000000000000000000AB
:102D280010000000000000000A0000000B00000076
:102D38000C0000000000000000000000000000007F
:102D4800000000000000000000000000000000007B
:102D5800000000000000000000000000000000006B
:102D6800000000000000000000000000100000004B
:102D7800000000000A0000000B0000000C0000002A
:102D8800000000000000000000000000000000003B
:102D9800000000000000000000000000000000002B
:102DA800000000000000000000000000000000001B
:102DB80000000000000000001000000000000000FB
:102DC8000A0000000B0000000C00000000000000DA
:102DD80000000000000000000000000000000000EB
:102DE80000000000000000000000000000000000DB
:102DF80000000000000000000000000000000000CB
:102E08000102030401020304060708090204060874
:082E18000100000001000000B0
:0400000508000000EF
:00000001FF
