:020000040800F2
:10000000A00700200D010008D51F0008E11F00080F
:10001000E91F0008F11F0008F91F00080000000098
:1000200000000000000000000000000001200008A7
:100030000D200008000000001920000825200008FD
:1000400071010008710100087101000871010008C8
:1000500071010008710100087101000871010008B8
:1000600071010008710100087101000871010008A8
:100070007101000871010008710100087101000898
:10008000710100087101000871010008CD1000081D
:1000900021110008710100087101000871010008B8
:1000A000710100086D20000871010008710100084D
:1000B000D920000839210008000000007101000863
:1000C000710100080000000000000000710100083C
:1000D0000000000071010008BD24000800000000BD
:1000E00071010008710100087101000800000000A2
:1000F0000000000000000000000000000000000000
:1001000000000000000000005FF808F180B582B038
:1001100000AF42F2B463C0F600037B6040F200031C
:10012000C2F200033B6007E03B681A1D3A607A6840
:10013000111D796012681A603A6840F23003C2F209
:1001400000039A42F0D3084808494FF00002884261
:10015000B8BF40F8042BFADB00F048F800F0F8FFD5
:100160000837BD4680BD000030000020A0030020FD
:1001700080B400AFFEE700BF80B483B000AF78600A
:100180000B467B807B88DB439AB27B681A820C37F4
:10019000BD465DF8047B704780B485B000AF7860E1
:1001A0000B467B800023FB730023BB8100237B81F4
:1001B0007B681B8A9AB27B881340BB817B689B89D2
:1001C0009AB27B8813407B81BB89002B05D07B8949
:1001D000002B02D00123FB7301E00023FB73FB7BA8
:1001E00018461437BD465DF8047B704780B500AFF4
:1001F0004FF48053C4F202034FF48052C4F202025F
:10020000126842F001021A604FF48052C4F20202F6
:100210004FF48053C4F2020359680023CFF6FF0362
:100220000B4053604FF48053C4F202034FF48052EA
:10023000C4F20202126822F0847222F480321A6040
:100240004FF48053C4F202034FF48052C4F202020E
:10025000126822F480221A604FF48053C4F2020321
:100260004FF48052C4F20202526822F4FE025A6035
:100270004FF48053C4F202034FF41F029A6000F05F
:1002800009F84FF46D43CEF200034FF000629A601C
:1002900080BD00BF80B500AF00F002F880BD00BF98
:1002A00080B483B000AF00237B6000233B604FF439
:1002B0008053C4F202034FF48052C4F20202126867
:1002C00042F480321A604FF48053C4F202031B6878
:1002D00003F400333B607B6801337B603B68002B99
:1002E00003D17B68B3F5A06FEDD14FF48053C4F216
:1002F00002031B6803F40033002B02D001233B6090
:1003000001E000233B603B68012B40F094804FF4F8
:100310000053C4F202034FF40052C4F20202126806
:1003200042F010021A604FF40053C4F202034FF47B
:100330000052C4F20202126822F003021A604FF463
:100340000053C4F202034FF40052C4F202021268D6
:1003500042F002021A604FF48053C4F202034FF4D9
:100360008052C4F2020252685A604FF48053C4F2C1
:1003700002034FF48052C4F2020252685A604FF4F2
:100380008053C4F202034FF48052C4F20202526856
:1003900042F480625A604FF48053C4F202034FF477
:1003A0008052C4F20202526822F47C125A604FF466
:1003B0008053C4F202034FF48052C4F20202526826
:1003C00042F4E8125A604FF48053C4F202034FF42F
:1003D0008052C4F20202126842F080721A6000BFBA
:1003E0004FF48053C4F202031B6803F00073002B28
:1003F000F6D04FF48053C4F202034FF48052C4F29B
:100400000202526822F003025A604FF48053C4F291
:1004100002034FF48052C4F20202526842F0020218
:100420005A6000BF4FF48053C4F202035B6803F0CC
:100430000C03082BF6D10C37BD465DF8047B7047E2
:1004400080B582B000AF78607A684FF4C843C4F2D8
:1004500000039A420AD14FF00070012101F0EEFB37
:100460004FF00070002101F0E9FB09E04FF08060DF
:10047000012101F0E3FB4FF08060002101F0DEFB81
:100480000837BD4680BD00BF80B485B000AF78603E
:1004900039600023FB730023BB607B681B6823F07B
:1004A00002027B681A607B681B6843F001027B686C
:1004B0001A6002E0BB680133BB607B685B6803F0D5
:1004C0000103002B04D1BA684FF6FF739A42F1D1B1
:1004D0007B685B6803F00103002B02D10023FB73F0
:1004E0009CE03B689B79012B06D17B681B6843F03D
:1004F00080027B681A6005E07B681B6823F080023D
:100500007B681A603B68DB79012B06D17B681B682E
:1005100043F040027B681A6005E07B681B6823F0AB
:1005200040027B681A603B681B7A012B06D17B680E
:100530001B6843F020027B681A6005E07B681B683B
:1005400023F020027B681A603B685B7A012B06D19E
:100550007B681B6843F010027B681A6005E07B68CB
:100560001B6823F010027B681A603B689B7A012BA2
:1005700006D17B681B6843F008027B681A6005E0BF
:100580007B681B6823F008027B681A603B68DB7A93
:10059000012B06D17B681B6843F004027B681A605C
:1005A00005E07B681B6823F004027B681A603B68E7
:1005B0009B789A073B68DB781B061A433B681B79DC
:1005C0001B041A433B685B791B051A433B681B8875
:1005D000013B1A437B68DA617B681B6823F00102E8
:1005E0007B681A600023BB6002E0BB680133BB601C
:1005F0007B685B6803F00103002B04D0BA684FF6F8
:10060000FF739A42F1D17B685B6803F00103002B12
:1006100002D00023FB7301E00123FB73FB7B184630
:100620001437BD465DF8047B704700BF80B485B0C9
:1006300000AF78600023FB607B689B7A012202FA9E
:1006400003F3FB604FF4C843C4F200034FF4C84205
:10065000C4F20002D2F8002242F00102C3F80022E4
:100660004FF4C843C4F200034FF4C842C4F200027E
:10067000D2F81C12FA68D2430A40C3F81C227B68E5
:100680001B7B002B2DD14FF4C843C4F200034FF461
:10069000C842C4F20002D2F80C12FA68D2430A40EF
:1006A000C3F80C224FF4C843C4F200037A68927A6C
:1006B0007968C9880804796849880143483243F851
:1006C00032104FF4C842C4F200027B689B7A79680A
:1006D000898808047968098801434833DB0013449A
:1006E00059607B681B7B012B2CD14FF4C843C4F2AB
:1006F00000034FF4C842C4F20002D2F80C12FA68A8
:100700000A43C3F80C224FF4C843C4F200037A68CA
:10071000927A7968098808047968498801434832DF
:1007200043F832104FF4C842C4F200027B689B7A4F
:100730007968898808047968C98801434833DB00EF
:10074000134459607B68DB7A002B0FD14FF4C84308
:10075000C4F200034FF4C842C4F20002D2F80412FB
:10076000FA68D2430A40C3F804220DE04FF4C843AC
:10077000C4F200034FF4C842C4F20002D2F80412DB
:10078000FA680A43C3F804227B681B89002B0ED148
:100790004FF4C843C4F200034FF4C842C4F200024D
:1007A000D2F81412FA68D2430A40C3F814227B68C4
:1007B0001B89012B0DD14FF4C843C4F200034FF441
:1007C000C842C4F20002D2F81412FA680A43C3F80D
:1007D00014227B685B7B012B0DD14FF4C843C4F21C
:1007E00000034FF4C842C4F20002D2F81C12FA68A7
:1007F0000A43C3F81C224FF4C843C4F200034FF469
:10080000C842C4F20002D2F8002222F00102C3F86A
:1008100000221437BD465DF8047B704780B485B074
:1008200000AF786039600023FB737B689B6803F03E
:100830008063002B02D00023FB7313E07B689B686E
:1008400003F00063002B02D00123FB730AE07B68F6
:100850009B6803F08053002B02D00223FB7301E05E
:100860000423FB73FB7B042B00F09880FB7BFA7B5B
:100870007968183212010A44126802F0010279689C
:1008800018331B010B441A603B681B7A002B13D1F1
:10089000FB7BFA7B7968183212010A4411683A68C6
:1008A000126850053A68527A02430A43796818334D
:1008B0001B010B441A6015E0FB7BFA7B7968183248
:1008C00012010A4411683A685268D0003A68127AF4
:1008D00010433A68527A02430A43796818331B017D
:1008E0000B441A603B689B7A03F00F03DAB23B6853
:1008F0009A72FB7BFA7B7968183212010A445268BB
:1009000022F00F02796818331B010B445A60FB7BFD
:10091000FA7B7968183212010A4451683A68927A6F
:100920000A43796818331B010B445A60FB7B3A6811
:10093000927B11063A68527B120411433A68127B8B
:10094000120211433A68D27A0A4379681B010B44B8
:1009500003F5C4731A60FB7B3A68927C11063A680F
:10096000527C120411433A68127C120211433A6815
:10097000D27B0A4379681B010B4403F5C4735A60A8
:10098000FB7BFA7B7968183212010A44126842F044
:100990000102796818331B010B441A60FB7B18466F
:1009A0001437BD465DF8047B704700BF80B485B046
:1009B00000AFF8600B467A60FB72FB7AFA681B3373
:1009C0001B0113441B68DBB203F00403DAB27B683B
:1009D0001A727B681B7A002B09D1FB7AFA681B33E9
:1009E0001B0113441B685A0D7B681A6008E0FB7AF0
:1009F000FA681B331B0113441B68DA087B685A60D2
:100A0000FB7AFA681B331B0113441B68DBB203F04B
:100A10000203DAB27B685A72FB7AFA681B331B0155
:100A200013445B68DBB203F00F03DAB27B689A729F
:100A3000FB7AFA681B331B0113445B681B0ADAB2AA
:100A40007B68DA74FB7AFA681B01134403F5DC73E4
:100A50001B68DAB27B68DA72FB7AFA681B0113440E
:100A600003F5DC731B681B0ADAB27B681A73FB7A26
:100A7000FA681B01134403F5DC731B681B0CDAB224
:100A80007B685A73FB7AFA681B01134403F5DC7325
:100A90001B681B0EDAB27B689A73FB7AFA681B013B
:100AA000134403F5DC735B68DAB27B68DA73FB7AB4
:100AB000FA681B01134403F5DC735B681B0ADAB2A6
:100AC0007B681A74FB7AFA681B01134403F5DC7324
:100AD0005B681B0CDAB27B685A74FB7AFA681B01FC
:100AE000134403F5DC735B681B0EDAB27B689A74FF
:100AF000FB7A002B06D1FB68DB6843F02002FB6821
:100B0000DA6005E0FB681B6943F02002FB681A61AC
:100B10001437BD465DF8047B704700BF80B485B0D4
:100B200000AF78600023FB737B689B691B0EFB732F
:100B3000FB7B18461437BD465DF8047B704700BF49
:100B400080B485B000AF78600023FB737B689B693D
:100B500003F47F031B0CFB73FB7B18461437BD4665
:100B60005DF8047B704700BF80B485B000AFF860CB
:100B7000B9601346FB71FB79002B06D0FB685A69FC
:100B8000BB681A43FB685A6106E0FB685A69BB6898
:100B9000DB431A40FB685A611437BD465DF8047B9D
:100BA000704700BF80B584B000AF78603960002323
:100BB000FB737B685A693B681340002B00F0B580DB
:100BC0003B68402B65D0402B0FD8042B3DD0042B25
:100BD00004D8012B24D0022B2ED0A2E0102B46D01B
:100BE000202B4DD0082B39D09BE0B3F5006F00F0DF
:100BF0008680B3F5006F09D8B3F5007F6DD0B3F5EB
:100C0000806F73D0B3F5807F5ED08AE0B3F5803F0C
:100C100048D0B3F5003F4ED0B3F5004F78D080E018
:100C20007B689B68184640F20111C0F2010100F098
:100C3000F3F80346FB7377E07B68DB681846032113
:100C400000F0EAF80346FB736EE07B68DB68184649
:100C5000082100F0E1F80346FB7365E07B68DB6880
:100C60001846102100F0D8F80346FB735CE07B685F
:100C70001B691846032100F0CFF80346FB7353E0CD
:100C80007B681B691846082100F0C6F80346FB7311
:100C90004AE07B681B691846102100F0BDF8034646
:100CA000FB7341E07B685B681846082100F0B4F8EC
:100CB0000346FB7338E07B685B681846102100F040
:100CC000ABF80346FB732FE07B689B691846012154
:100CD00000F0A2F80346FB7326E07B689B69184688
:100CE000022100F099F80346FB731DE07B689B69C5
:100CF0001846042100F090F80346FB7314E07B686B
:100D00009B691846702100F087F80346FB730BE0DF
:100D10007B685B681846042100F07EF80346FB738D
:100D200002E00023FB7300BF01E00023FB73FB7BA9
:100D300018461037BD4680BD80B483B000AF7860E0
:100D400039603B68B3F5807F46D0B3F5807F0DD81E
:100D5000082B2DD0082B04D8012B1ED0042B23D018
:100D600054E0202B28D0402B2AD04FE0B3F5006F61
:100D70003ED0B3F5006F06D8B3F5007F30D0B3F5A1
:100D8000806F31D042E0B3F5803F1DD0B3F5003F16
:100D90001ED0B3F5004F32D038E07A6840F201132C
:100DA000C0F20103936031E07B680822DA602DE035
:100DB0007B681022DA6029E07B6808221A6125E04E
:100DC0007B6810221A6121E07B6808225A601DE0CE
:100DD0007B6810225A6019E07B6804225A6015E093
:100DE0007B6804225A6011E07B6804225A600DE09F
:100DF0007B6800229A617B6804225A6006E07B6867
:100E000000229A617B6804225A6000BF0C37BD46FD
:100E10005DF8047B704700BF80B485B000AF786098
:100E200039600023FB737A683B681340002B02D0C3
:100E30000123FB7301E00023FB73FB7B184614378F
:100E4000BD465DF8047B704780B489B000AF786020
:100E500039600023FB6100233B610023BB61002359
:100E6000FB6000237B610023BB603B68DB7803F001
:100E70000F03FB613B68DB7803F01003002B04D009
:100E80003B689B78FA691343FB613B681B88DBB2C4
:100E9000002B44D07B681B687B610023BB6138E07A
:100EA000BB69012202FA03F3FB603B681B881A4608
:100EB000FB6813403B613A69FB689A4226D1BB69E3
:100EC0009B00FB60FB680F2202FA03F3BB60BB6868
:100ED000DB437A6913407B61FB68FA6902FA03F32A
:100EE0007A6913437B613B68DB78282B05D1BB69AA
:100EF00001229A407B685A6108E03B68DB78482B06
:100F000004D1BB6901229A407B681A61BB69013335
:100F1000BB61BB69072BC3D97B687A691A603B68E0
:100F20001B88FF2B46D97B685B687B610023BB6114
:100F30003AE0BB690833012202FA03F3FB603B6825
:100F40001B881A46FB6813403B613A69FB689A426A
:100F500027D1BB699B00FB60FB680F2202FA03F3F9
:100F6000BB60BB68DB437A6913407B61FB68FA694D
:100F700002FA03F37A6913437B613B68DB78282B21
:100F800005D1BB69083301229A407B685A613B68EE
:100F9000DB78482B05D1BB69083301229A407B6876
:100FA0001A61BB690133BB61BB69072BC1D97B687F
:100FB0007A695A602437BD465DF8047B704700BFEC
:100FC00080B483B000AF03463960FB7197F90730F6
:100FD000002B0EDA4FF46D43CEF20003FA7902F0E3
:100FE0000F02111F3A68D2B21201D2B20B441A7624
:100FF0000CE04FF46143CEF2000397F907103A6812
:10100000D2B21201D2B20B4483F800230C37BD4692
:101010005DF8047B704700BF80B582B000AF786098
:101020007B68B3F1807F01D301231AE04EF21003F5
:10103000CEF200037A6822F07F42013A5A604FF004
:10104000FF300F21FFF7BCFF4EF21003CEF200037A
:1010500000229A604EF21003CEF2000307221A60BB
:10106000002318460837BD4680BD00BF80B582B05A
:1010700000AFFFF7BBF840F20003C2F200031A68AA
:1010800044F6D353C1F26203A3FB02139B09184633
:10109000FFF7C2FF0420012100F080FD4FF48063C0
:1010A000BB800323BB711023FB713B1D4FF4006019
:1010B000C4F201001946FFF7C7FE01F025F900F060
:1010C00011FC01F06FF80837BD4680BD80B500AF58
:1010D0004FF4C840C4F200000121FFF763FD03464E
:1010E000002B1CD040F2FC13C2F20003DB7A013368
:1010F000DAB240F2FC13C2F20003DA724FF4C840D5
:10110000C4F2000040F2FC11C2F20001FFF786FBBE
:101110004FF4C840C4F200000121FFF70DFE80BD6E
:1011200080B500AF4FF4C840C4F200000221FFF7C1
:1011300039FD0346002B0AD04FF4C840C4F200002A
:10114000002140F25802C2F20002FFF72FFC80BDDE
:101150002DE9F04FBDB008AF3A1DC823104600215D
:101160001A4601F00DFA012387F8CF30FFF77EFF12
:1011700040F2FC13C2F2000301221A6040F2FC1399
:10118000C2F2000300225A6040F2FC13C2F20003D4
:1011900000221A7240F2FC13C2F2000300225A72BB
:1011A00040F2FC13C2F2000303229A7240F2FC13D5
:1011B000C2F200030D22DA7240F2FC13C2F2000305
:1011C0000E221A7340F2FC13C2F200030F225A736C
:1011D0003A1D42F22063C0F6000314460FCB07C449
:1011E000238002341B0C23703B1D184601F022F9AA
:1011F00040F23003C2F2000300221A6000BF40F246
:101200003003C2F200031B68B3F5967FF7D33A1D93
:1012100042F23063C0F6000314461D460FCD0FC4E2
:101220002B681A46228002341B0C23703B1D184683
:1012300001F000F94FF4C840C4F2000040F2FC1184
:10124000C2F20001FFF7EAFA40F23003C2F20003F3
:1012500000221A6000BF40F23003C2F200031B6894
:10126000632BF8D940F23403C2F200031B68002B51
:1012700012D140F23403C2F200034FF47A721A60C2
:1012800097F8CF30002B03D0002387F8CF3003E04E
:10129000012387F8CF3057E056E040F23003C2F226
:1012A000000300221A6040F25803C2F200031D68D6
:1012B00040F25803C2F200035B7A1C4640F2580326
:1012C000C2F200039B7A9B4640F25803C2F200032D
:1012D000DB7A9A4640F25803C2F200031B7B994620
:1012E00040F25803C2F200035B7B98464FF4C840BB
:1012F000C4F20000FFF712FC03461E464FF4C8403C
:10130000C4F20000FFF71CFC034619464FF4C84323
:10131000C4F200039A693B1DCDF800B0CDF804A0DB
:10132000CDF80890CDF80C800496059106921846E9
:1013300042F24461C0F600012A46234600F0BCFA9E
:101340003B1D184601F076F840F23003C2F200036C
:101350001B68B3F5FA7FA0D284E700BF80B483B0E6
:1013600000AF78600B46FB707B68FA781A70012337
:1013700018460C37BD465DF8047B704780B485B0D5
:1013800000AF786039600023FB600AE07B685A1C7C
:101390007A603A68511C396012781A70FB68013320
:1013A000FB603B681B78002BF0D1FB6818461437B4
:1013B000BD465DF8047B704780B586B000AFF8602D
:1013C0007A603B600B46FB7200237B617B68013BCC
:1013D0007B603B68092B13D93A684CF6CD43CCF6B9
:1013E000CC43A3FB0213DB08FA7AF86811467A684B
:1013F000FFF7E2FF78617B69FA681344FB6011E054
:101400000DE0FB7AF8681946FFF7A8FFFB68013387
:10141000FB607B6901337B617B68013B7B607B68A0
:10142000002BEEDC39684CF6CD43CCF6CC43A3FB65
:101430000123DA0813469B0013445B00CA1AD3B297
:101440003033DBB2F8681946FFF788FF03467A6944
:1014500013447B617B6918461837BD4680BD00BFC9
:1014600080B586B000AFF8607A603B600B46FB72D7
:1014700000237B613B68002B03DA3B685B423B61E6
:1014800001E03B683B617B68013B7B603B69092B6A
:1014900027D93B68002B10DA3A694CF6CD43CCF6DD
:1014A000CC43A3FB0213DB085B42FA7AF8681146CF
:1014B0007A68FFF7D5FF78610EE03A694CF6CD43C4
:1014C000CCF6CC43A3FB0213DB08FA7AF86811468A
:1014D0007A68FFF7C5FF78617B69FA681344FB609F
:1014E00026E03B68002B03DA7B68013B7B600EE063
:1014F0000DE0FB7AF8681946FFF730FFFB6801330F
:10150000FB607B6901337B617B68013B7B607B68AF
:10151000002BEEDC3B68002B0ADAF8682D21FFF780
:101520001DFF03467A6913447B61FB680133FB604E
:1015300039694CF6CD43CCF6CC43A3FB0123DA0842
:1015400013469B0013445B00CA1AD3B23033DBB29C
:10155000F8681946FFF702FF03467A6913447B6176
:101560007B6918461837BD4680BD00BF80B588B07E
:1015700002AFF8607A600A46FA72BB7200237B61A0
:101580007B68013B7B603B6A1B09002B12D03B6AE6
:101590001909FA7ABB7A0091F86811467A68FFF760
:1015A000E5FF03467A6913447B617B69FA6813445B
:1015B000FB6011E00DE0FB7AF8681946FFF7CEFEFC
:1015C000FB680133FB607B6901337B617B68013B16
:1015D0007B607B68002BEEDC3B6A03F00F03092B7A
:1015E0000BD83B6ADBB203F00F03DBB23033DBB264
:1015F000F8681946FFF7B2FE19E0BB7A002B0BD052
:101600003B6ADBB203F00F03DBB23733DBB2F868BF
:101610001946FFF7A3FE0AE03B6ADBB203F00F03B3
:10162000DBB25733DBB2F8681946FFF797FE7B69E8
:1016300001337B617B6918461837BD4680BD00BF0A
:1016400080B58AB002AFF860B9607A603B60002371
:10165000BB6100237B61FB68002B03D0FB68002289
:101660001A70F8E0F7E07B681B78252B0BD0FB683D
:101670005A1CFA607A68511C796012781A707B697A
:1016800001337B61E7E07B6801331B78252B0BD1AD
:10169000FB685A1CFA6025221A707B6802337B6053
:1016A0007B6901337B61D6E02023FB770023BB7786
:1016B0007B6801337B607B681B78302B05D130233E
:1016C000FB777B6801337B600FE00EE0BB7F1A463F
:1016D000920013445B00DAB27B681B781344DBB2E0
:1016E000303BBB777B6801337B607B681B782F2B9B
:1016F00003D97B681B78392BE8D9BA7F7B691344FF
:101700001A46BB689A4205D9BB68DAB27B69DBB27C
:10171000D31ABB777B681B78583B202B00F28D8057
:1017200001A252F823F000BFF51700083B1800088B
:101730003B1800083B1800083B1800083B1800083D
:101740003B1800083B1800083B1800083B1800082D
:101750003B18000825180008AD1700083B180008C2
:101760003B1800083B1800083B180008AD1700089C
:101770003B1800083B1800083B1800083B180008FD
:101780003B1800083B1800083B1800083B180008ED
:101790003B180008111800083B180008C317000880
:1017A0003B1800083B180008D9170008BA7F3B68AF
:1017B000191D39601B68F97FF868FFF751FEB861A1
:1017C0003EE0BA7F3B68191D39601B68F97FF868F5
:1017D000FFF7F2FDB86133E0BA7F3B68191D39604D
:1017E0001968FB7F0091F86819460023FFF7BEFED9
:1017F000B86125E0BA7F3B68191D39601968FB7F25
:101800000091F86819460123FFF7B0FEB86117E0B0
:101810003B681A1D3A601B68F8681946FFF7AEFD71
:10182000B8610DE03B681A1D3A601B68DBB2F868CE
:101830001946FFF793FDB86102E04FF0FF3325E052
:101840007B6801337B60BB69FA681344FB607A698B
:10185000BB6913447B617B681B78002B04D07A69D9
:10186000BB689A42FFF4FFAE7A69BB689A4203D222
:10187000FB6800221A7008E0FB68013BFB60FB6814
:1018800000221A707B69013B7B617B691846203717
:10189000BD4680BD80B584B000AFF860B9607A60A5
:1018A000F8686421BA687B68FFF7CAFE03461846E9
:1018B0001037BD4680BD00BF0EB480B585B000AF07
:1018C000786007F12003BB607868F969BA68FFF7B0
:1018D000E1FFF860FB6818461437BD46BDE880405C
:1018E00003B0704780B58AB000AF00237B624FF42D
:1018F000C840C4F20000FEF7A3FD4FF000700121C4
:1019000000F074F90520012100F048F94FF400635C
:101910003B84482387F82330032387F8223007F1DC
:1019200020034FF40060C4F201001946FFF78CFA5F
:101930004FF480533B84182387F8233007F12003AA
:101940004FF40060C4F201001946FFF77DFA01234D
:10195000BB760023FB7600233B7700237B770023B5
:10196000BB770023FB770023BB750023FB750423A3
:101970003B7605237B760323BB8207F114034FF4E8
:10198000C840C4F200001946FEF77EFD0023BB7379
:101990000023BB810023FB7300233B740023FB80E7
:1019A00000237B810023BB8000233B8101237B74C8
:1019B0003B1D1846FEF73AFE4FF4C840C4F2000043
:1019C00002210122FFF7D0F84FF4C840C4F2000012
:1019D00001210122FFF7C8F82837BD4680BD00BFAE
:1019E00080B487B000AF786000237B6100233B6147
:1019F0000023FB600023BB604FF48053C4F202035A
:101A00005B6803F00C037B617B69042B0AD0082B15
:101A10000FD0002B4CD17A684FF49053C0F27A0368
:101A200013604CE07A684FF49053C0F27A0313606D
:101A300045E04FF48053C4F202035B6803F4701373
:101A40003B614FF48053C4F202035B6803F48033BC
:101A5000FB603B699B0C02333B61FB68002B09D1A7
:101A60003A694FF41063C0F23D0303FB02F27B6856
:101A70001A601CE04FF48053C4F202035B6803F465
:101A80000033002B09D03A694FF41063C0F23D03D4
:101A900003FB02F27B681A6009E03A694FF4905345
:101AA000C0F27A0303FB02F27B681A6007E006E0EB
:101AB0007A684FF49053C0F27A03136000BF4FF47A
:101AC0008053C4F202035B6803F0F0037B617B691F
:101AD0001B097B6140F21403C2F200037A691344CC
:101AE0001B78DBB2BB607B681A68BB68DA407B6836
:101AF0005A604FF48053C4F202035B6803F4E0635E
:101B00007B617B691B0A7B6140F21403C2F2000314
:101B10007A6913441B78DBB2BB607B685A68BB6888
:101B2000DA407B689A604FF48053C4F202035B682A
:101B300003F460537B617B69DB0A7B6140F2140331
:101B4000C2F200037A6913441B78DBB2BB607B6886
:101B50005A68BB68DA407B68DA604FF48053C4F29D
:101B600002035B6803F440437B617B699B0B7B61F1
:101B700040F22403C2F200037A6913441B78DBB2FB
:101B8000BB607B68DA68BB68B2FBF3F27B681A6102
:101B90001C37BD465DF8047B704700BF80B483B03E
:101BA00000AF78600B46FB70FB78002B0CD04FF435
:101BB0008053C4F202034FF48052C4F202029169CE
:101BC0007A680A439A610CE04FF48053C4F202032E
:101BD0004FF48052C4F2020291697A68D2430A40FB
:101BE0009A610C37BD465DF8047B704780B483B0C2
:101BF00000AF78600B46FB70FB78002B0CD04FF4E5
:101C00008053C4F202034FF48052C4F20202D1693D
:101C10007A680A43DA610CE04FF48053C4F202039D
:101C20004FF48052C4F20202D1697A68D2430A406A
:101C3000DA610C37BD465DF8047B704780B483B031
:101C400000AF78600B46FB70FB78002B0CD04FF494
:101C50008053C4F202034FF48052C4F202021169AD
:101C60007A680A431A610CE04FF48053C4F202030D
:101C70004FF48052C4F2020211697A68D2430A40DA
:101C80001A610C37BD465DF8047B704780B58CB097
:101C900000AF786039600023FB620023BB62002341
:101CA0007B6200233B620023FB617B68FB617B68F6
:101CB0001B8A9BB2FB62FA6A4CF6FF731340FB620D
:101CC0003B68DB88FA6A1343FB62FB6A9AB27B6863
:101CD0001A827B689B899BB2FB62FA6A4EF6F31309
:101CE0001340FB623B689A883B681B8913439AB296
:101CF0003B685B8913439BB2FA6A1343FB62FB6A3E
:101D00009AB27B689A817B689B8A9BB2FB62FA6A73
:101D10004FF6FF431340FB623B689B89FA6A13430B
:101D2000FB62FB6A9AB27B689A8207F10803184645
:101D3000FFF756FEFA694FF46053C4F201039A426A
:101D400002D17B69BB6201E03B69BB627B689B8916
:101D50009BB29BB21BB2002B0CDABA6A13469B00F3
:101D600013449A001A443B681B685B00B2FBF3F310
:101D70007B620BE0BA6A13469B0013449A001A4434
:101D80003B681B689B00B2FBF3F37B627A6A48F204
:101D90001F53C5F2EB13A3FB02135B091B01FB628C
:101DA000FB6A1B09642202FB03F37A6AD31A3B62C3
:101DB0007B689B899BB29BB21BB2002B10DA3B6AFB
:101DC000DB0003F1320248F21F53C5F2EB13A3FB11
:101DD00002135B0903F00703FA6A1343FB620FE087
:101DE0003B6A1B0103F1320248F21F53C5F2EB13A9
:101DF000A3FB02135B0903F00F03FA6A1343FB62B0
:101E0000FB6A9AB27B681A813037BD4680BD00BF3D
:101E100080B483B000AF78600B46FB70FB78002B7A
:101E200008D07B689B899BB243F400539AB27B68CD
:101E30009A8107E07B689B899BB223F400539AB296
:101E40007B689A810C37BD465DF8047B704700BF04
:101E500080B487B000AF786013460A467A807B7002
:101E600000233B610023FB600023BB6000237B61F8
:101E70007B687B617B88DBB25B09DBB23B617B8883
:101E800003F01F03FB60FB68012202FA03F3BB604F
:101E90003B69012B03D17B690C337B6109E03B6912
:101EA000022B03D17B6910337B6102E07B69143321
:101EB0007B617B78002B06D07B697A691168BA68F0
:101EC0000A431A6006E07B697A691168BA68D243EE
:101ED0000A401A601C37BD465DF8047B704700BF9E
:101EE00080B483B000AF78600B467B807B88C3F3FF
:101EF00008039AB27B689A800C37BD465DF8047B74
:101F0000704700BF80B483B000AF78607B689B8867
:101F10009BB2C3F308039BB218460C37BD465DF86D
:101F2000047B704780B487B000AF78600B467B803D
:101F30000023FB6000237B610023BB600023FB7454
:101F40007B88DBB25B09DBB2BB607B8803F01F03DD
:101F50007B617B69012202FA03F37B61BB68012B81
:101F600006D17B689B899BB27A6913407B610FE045
:101F7000BB68022B06D17B681B8A9BB27A6913402F
:101F80007B6105E07B689B8A9BB27A6913407B6129
:101F90007B881B0A9BB2FB60FB68012202FA03F3F9
:101FA000FB607B681B889BB2FA681340FB607B690F
:101FB000002B05D0FB68002B02D00123FB7401E04D
:101FC0000023FB74FB7C18461C37BD465DF8047B80
:101FD000704700BF80B400AFBD465DF8047B70471A
:101FE00080B400AFFEE700BF80B400AFFEE700BFE3
:101FF00080B400AFFEE700BF80B400AFFEE700BFD3
:1020000080B400AFBD465DF8047B704780B400AF7C
:10201000BD465DF8047B704780B400AFBD465DF8F7
:10202000047B704780B400AF40F23003C2F200037B
:102030001B685A1C40F23003C2F200031A6040F2DF
:102040003403C2F200031B68002B0AD040F23403B1
:10205000C2F200031B685A1E40F23403C2F20003AE
:102060001A60BD465DF8047B704700BF80B500AFC5
:102070004FF43050C4F201000121FEF78DF8034601
:10208000002B28D04FF43053C4F201031B889BB2BD
:1020900003F010031B11002B0BD140F23803C2F2E6
:1020A00000031B685A1C40F23803C2F200031A6096
:1020B0000AE040F23C03C2F200031B685A1C40F2E3
:1020C0003C03C2F200031A604FF43050C4F2010026
:1020D0000121FEF751F880BD80B500AF4FF0804080
:1020E0000121FEF759F80346002B24D04FF080431E
:1020F0001B889BB203F010031B11002B0BD140F285
:102100004003C2F200031B685A1C40F24003C2F2B3
:1021100000031A600AE040F24403C2F200031B68A5
:102120005A1C40F24403C2F200031A604FF0804090
:102130000121FEF721F880BD80B500AF4FF480602B
:10214000C4F200000121FEF727F80346002B28D037
:102150004FF48063C4F200031B889BB203F01003AA
:102160001B11002B0BD140F24803C2F200031B6885
:102170005A1C40F24803C2F200031A600AE040F21F
:102180004C03C2F200031B685A1C40F24C03C2F21B
:1021900000031A604FF48060C4F200000121FDF7D3
:1021A000EBFF80BD80B582B000AF4FF4C06000F09F
:1021B0002FF826233B7102237B710023BB7101237F
:1021C000FB713B1D184600F037F84FF4E06000F05B
:1021D0001FF814233B7100237B710023BB71012383
:1021E000FB713B1D184600F027F84FF4E06000F04B
:1021F0000FF813233B7100237B710023BB71012374
:10220000FB713B1D184600F017F80837BD4680BD2E
:1022100080B483B000AF78604FF46D43CEF200031A
:102220007A6842F0BF6242F40032DA600C37BD4691
:102230005DF8047B704700BF80B487B000AF786062
:1022400000237B6100233B610F23FB607B68DB780D
:10225000002B42D04FF46D43CEF20003DB68DB432A
:1022600003F4E0631B0A7B617B69C3F104033B61F8
:102270007B69FA6822FA03F3FB607B685B781A4695
:102280003B6902FA03F37B617B689B781A46FB6823
:1022900013407A6913437B617B691B017B614FF4B7
:1022A0006143CEF200037A68127811467A69D2B29D
:1022B0000B4483F800234FF46143CEF200037A68A5
:1022C00012785209D2B27968097801F01F01012011
:1022D00000FA01F143F8221011E04FF46143CEF20D
:1022E00000037A6812785209D2B27968097801F04D
:1022F0001F01012000FA01F1203243F822101C379F
:10230000BD465DF8047B704780B586B000AF4FF4E2
:1023100000300121FFF76AFC04200121FFF73EFC99
:102320000423BB821823FB750323BB7507F1140339
:102330004FF40060C4F201001946FEF785FD082342
:10234000BB820423FB750323BB7507F114034FF411
:102350000060C4F201001946FEF776FD4FF4E13348
:102360007B6000233B8100237B810023BB81002312
:102370003B820C23FB813B1D4FF48840C4F20000DC
:102380001946FFF783FC4FF48840C4F2000040F286
:1023900025510122FFF75CFD4FF48840C4F2000094
:1023A0000121FFF735FD1837BD4680BD80B582B0ED
:1023B00000AF0346FB714FF48840C4F2000040F2C6
:1023C00027710022FFF744FD40F22803C2F2000308
:1023D0001A6840F21023C2F20003F979995440F2CE
:1023E0002803C2F200031B685A1C40F22803C2F201
:1023F00000031A6040F22803C2F200031B68C72BD7
:1024000005DD40F25003C2F2000300221A6040F2E0
:102410002803C2F2000301221A604FF48840C4F27C
:10242000000040F227710122FFF712FD0837BD4678
:1024300080BD00BF80B582B000AF78604FF48840A7
:10244000C4F2000040F227710022FFF701FD25E0F1
:1024500040F22803C2F200031A687B68591C7960B5
:10246000197840F21023C2F20003995440F2280375
:10247000C2F200031B685A1C40F22803C2F2000398
:102480001A6040F22803C2F200031B68C72B05DD67
:1024900040F22803C2F2000300221A607B681B7816
:1024A000002BD5D14FF48840C4F2000040F22771D0
:1024B0000122FFF7CDFC0837BD4680BD80B582B054
:1024C00000AF4FF48840C4F2000040F22551FFF7FE
:1024D00029FD0346002B0BD04FF48840C4F20000C6
:1024E000FFF710FD0346FB71FB791846FFF75EFF0F
:1024F0004FF48840C4F2000040F22771FFF712FD4C
:102500000346002B39D040F25003C2F200031B688F
:102510001A46511C40F25003C2F20003196040F207
:102520001023C2F200039B5C4FF48840C4F2000009
:102530001946FFF7D5FC40F25003C2F200031B68B6
:10254000C72B05DD40F25003C2F2000300221A60DF
:1025500040F25003C2F200031A6840F22803C2F2AC
:1025600000031B689A4208D14FF48840C4F200006F
:1025700040F227710022FFF76BFC0837BD4680BD93
:102580008307F0B448D0541E002A43D0CDB203468E
:1025900002E0002C3ED0144603F8015B13F0030F59
:1025A00004F1FF32F5D1032C2DD9CDB20F2C45EA21
:1025B000052545EA054518D9A4F1100703F11006D1
:1025C0001A463F0906EB07161560103242F80C5CFC
:1025D00042F8085C42F8045CB242F5D104F00F0402
:1025E0000137032C03EB07130DD91E462246043A8C
:1025F00046F8045B032AFAD8221F04F0030422F0F1
:102600000302043213442CB1C9B21C4403F8011B69
:10261000A342FBD1F0BC704714460346C3E700BF9A
:1026200043414E2057414B45205550210D0A000093
:1026300043414E205452414E534D49545445442138
:102640000D0A0000537449643A30782558200A0D69
:102650005254523A2564200A0D444C433A255820DE
:102660000A0D446174615B305D3A30782558200A68
:102670000D446174615B315D3A30782558200A0D54
:10268000446174615B325D3A30782558200A0D52FE
:102690006572726F723A2564200A0D546572726F0A
:1026A000723A2564200A0D4553523A25580A0D0AFC
:0426B0000D00000019
:1026B40000A24A040000000000000000010203041C
:1026C40006070809000000000102030401020304D4
:1026D40006070809020406080100000001000000C2
:0400000508000000EF
:00000001FF
