:020000040800F2
:10000000F00B00200D010008C9270008D5270008C3
:10001000E1270008ED270008F9270008000000008C
:10002000000000000000000000000000052800089B
:1000300011280008000000001D28000829280008D9
:1000400071010008710100087101000871010008C8
:1000500071010008710100087101000871010008B8
:1000600071010008710100087101000871010008A8
:100070007101000871010008710100087101000898
:100080007101000871010008710100085117000892
:100090009D17000871010008D917000871010008B8
:1000A0007101000871280008710100087101000841
:1000B000DD2800083D29000800000000710100084B
:1000C000710100080000000000000000710100083C
:1000D0000000000071010008CD31000800000000A0
:1000E00071010008710100087101000800000000A2
:1000F0000000000000000000000000000000000000
:1001000000000000000000005FF808F180B582B038
:1001100000AF43F23C33C0F600037B6040F20003C3
:10012000C2F200033B6007E03B681A1D3A607A6840
:10013000111D796012681A603A6840F25843C2F2A1
:1001400000039A42F0D3084808494FF00002884261
:10015000B8BF40F8042BFADB00F072F901F042FB63
:100160000837BD4680BD000058040020EC07002081
:1001700080B400AFFEE700BF80B485B000AF786008
:1001800039600023FB817B681B88FB817A684FF410
:100190003053C4F201039A421FD07A684FF450538F
:1001A000C4F201039A4218D07B68B3F1804F14D097
:1001B0007A684FF48063C4F200039A420DD07A68E3
:1001C0004FF40063C4F200039A4206D07A684FF4F9
:1001D0004063C4F200039A4208D1FB8923F0700304
:1001E000FB813B685A88FB891343FB817A684FF493
:1001F0008053C4F200039A420FD07A684FF4A053A0
:10020000C4F200039A4208D0FB8923F44073FB81B7
:100210003B68DA88FB891343FB817B68FA891A8083
:100220003B689A887B689A853B681A887B681A8540
:100230007A684FF43053C4F201039A421BD07A68B3
:100240004FF45053C4F201039A4214D07A684FF429
:100250008043C4F201039A420DD07A684FF4884378
:10026000C4F201039A4206D07A684FF49043C4F274
:1002700001039A4204D13B681B7A1A467B681A86AE
:100280007B6801229A821437BD465DF8047B704773
:1002900080B483B000AF78600B46FB70FB78002B16
:1002A00008D07B681B889BB243F001039AB27B683D
:1002B0001A8007E07B681B889BB223F001039AB287
:1002C0007B681A800C37BD465DF8047B704700BF21
:1002D00080B483B000AF786013460A467A807B70A2
:1002E0007B78002B08D07B689B899AB27B8813436C
:1002F0009AB27B689A8109E07B689B899AB27B8875
:10030000DB439BB213409AB27B689A810C37BD469F
:100310005DF8047B704700BF80B483B000AF7860A5
:1003200013460A467A803B807B687A881A857B6808
:100330003A889A820C37BD465DF8047B704700BF4F
:1003400080B487B000AFF86079813A81FB800023E8
:10035000FB820023BB8200237B82FB681B89FB821C
:10036000FB681B8BBB82FB681B8C7B82FB8A23F0A8
:100370000703FB82FA8A7B891343FB82BB8A23F43F
:10038000407323F00303BB82BB8A43F4807343F0C2
:100390000103BB827B8A23F022037B82FB881B0143
:1003A0009AB23B8913439AB27B8A13437B82FB68E0
:1003B000FA8A1A81FB68BA8A1A83FB687A8A1A84D5
:1003C0001C37BD465DF8047B704700BF80B483B026
:1003D00000AF78600B467B807B88DB439AB27B68FA
:1003E0001A820C37BD465DF8047B704780B485B037
:1003F00000AF78600B467B800023FB730023BB813A
:1004000000237B817B681B8A9AB27B881340BB8167
:100410007B689B899AB27B8813407B81BB89002BC8
:1004200005D07B89002B02D00123FB7301E0002360
:10043000FB73FB7B18461437BD465DF8047B7047A1
:1004400080B500AF4FF48053C4F202034FF48052E2
:10045000C4F20202126842F001021A604FF48052A4
:10046000C4F202024FF48053C4F20203596800231D
:10047000CFF6FF030B4053604FF48053C4F20203E6
:100480004FF48052C4F20202126822F0847222F405
:1004900080321A604FF48053C4F202034FF480524A
:1004A000C4F20202126822F480221A604FF48053D0
:1004B000C4F202034FF48052C4F20202526822F4E2
:1004C000FE025A604FF48053C4F202034FF41F023D
:1004D0009A6000F009F84FF46D43CEF200034FF03C
:1004E00000629A6080BD00BF80B500AF00F002F8E6
:1004F00080BD00BF80B483B000AF00237B600023C9
:100500003B604FF48053C4F202034FF48052C4F2B4
:100510000202126842F480321A604FF48053C4F22F
:1005200002031B6803F400333B607B6801337B608C
:100530003B68002B03D17B68B3F5A06FEDD14FF47E
:100540008053C4F202031B6803F40033002B02D073
:1005500001233B6001E000233B603B68012B40F03E
:1005600094804FF40053C4F202034FF40052C4F2DB
:100570000202126842F010021A604FF40053C4F2F3
:1005800002034FF40052C4F20202126822F0030286
:100590001A604FF40053C4F202034FF40052C4F245
:1005A0000202126842F002021A604FF48053C4F251
:1005B00002034FF48052C4F2020252685A604FF4B0
:1005C0008053C4F202034FF48052C4F20202526814
:1005D0005A604FF48053C4F202034FF48052C4F2C5
:1005E0000202526842F480625A604FF48053C4F2AF
:1005F00002034FF48052C4F20202526822F47C12C9
:100600005A604FF48053C4F202034FF48052C4F294
:100610000202526842F4E8125A604FF48053C4F266
:1006200002034FF48052C4F20202126842F0807258
:100630001A6000BF4FF48053C4F202031B6803F03A
:100640000073002BF6D04FF48053C4F202034FF432
:100650008052C4F20202526822F003025A604FF440
:100660008053C4F202034FF48052C4F20202526873
:1006700042F002025A6000BF4FF48053C4F20203FA
:100680005B6803F00C03082BF6D10C37BD465DF810
:10069000047B704780B584B000AF0023FB8103204A
:1006A000012101F047FC40F60400012101F01AFC91
:1006B00040F2C3333B800323BB704823FB703B46AF
:1006C0004FF40060C4F20100194600F06BFD40F2E7
:1006D0000003C2F200031A684DF62913C6F2426302
:1006E000A3FB02135B0E9BB2013BFB814FF6FE7333
:1006F0003B810023BB8000237B810023FB803B1DCB
:100700004FF43050C4F201001946FFF735FD3B1D90
:100710004FF080401946FFF72FFD3B1D4FF48060DE
:10072000C4F200001946FFF727FDFB894FF4305053
:10073000C4F2010019460122FFF7EEFDFB894FF0DC
:10074000804019460122FFF7E7FDFB894FF48060E6
:10075000C4F2000019460122FFF7DEFD4FF43050CD
:10076000C4F20100032100220023FFF7E9FD4FF04E
:100770008040032100220023FFF7E2FD4FF4806058
:10078000C4F20000032100220023FFF7D9FD4FF43B
:100790003050C4F2010001210122FFF799FD4FF012
:1007A000804001210122FFF793FD4FF48060C4F2E5
:1007B000000001210122FFF78BFD4FF43050C4F2FD
:1007C00001000121FFF764FD4FF080400121FFF798
:1007D0005FFD4FF48060C4F200000121FFF758FD77
:1007E0001037BD4680BD00BF80B582B000AF7860D5
:1007F0007A684FF4C843C4F200039A420AD14FF01A
:100800000070012101F0E6FB4FF00070002101F0C3
:10081000E1FB09E04FF08060012101F0DBFB4FF0CC
:100820008060002101F0D6FB0837BD4680BD00BFC7
:1008300080B485B000AF786039600023FB7300237B
:10084000BB607B681B6823F002027B681A607B68D0
:100850001B6843F001027B681A6002E0BB68013349
:10086000BB607B685B6803F00103002B04D1BA68AE
:100870004FF6FF739A42F1D17B685B6803F0010386
:10088000002B02D10023FB739CE03B689B79012B7A
:1008900006D17B681B6843F080027B681A6005E024
:1008A0007B681B6823F080027B681A603B68DB79F9
:1008B000012B06D17B681B6843F040027B681A60FD
:1008C00005E07B681B6823F040027B681A603B6888
:1008D0001B7A012B06D17B681B6843F020027B68E2
:1008E0001A6005E07B681B6823F020027B681A60B1
:1008F0003B685B7A012B06D17B681B6843F01002D2
:100900007B681A6005E07B681B6823F010027B6837
:100910001A603B689B7A012B06D17B681B6843F009
:1009200008027B681A6005E07B681B6823F00802F8
:100930007B681A603B68DB7A012B06D17B681B68F9
:1009400043F004027B681A6005E07B681B6823F0B3
:1009500004027B681A603B689B789A073B68DB78E7
:100960001B061A433B681B791B041A433B685B79DF
:100970001B051A433B681B88013B1A437B68DA61FD
:100980007B681B6823F001027B681A600023BB6050
:1009900002E0BB680133BB607B685B6803F0010366
:1009A000002B04D0BA684FF6FF739A42F1D17B68EE
:1009B0005B6803F00103002B02D00023FB7301E00E
:1009C0000123FB73FB7B18461437BD465DF8047B9F
:1009D000704700BF80B485B000AF78600023FB6033
:1009E0007B689B7A012202FA03F3FB604FF4C84351
:1009F000C4F200034FF4C842C4F20002D2F800224D
:100A000042F00102C3F800224FF4C843C4F20003CD
:100A10004FF4C842C4F20002D2F81C12FA68D24362
:100A20000A40C3F81C227B681B7B002B2DD14FF49E
:100A3000C843C4F200034FF4C842C4F20002D2F823
:100A40000C12FA68D2430A40C3F80C224FF4C84390
:100A5000C4F200037A68927A7968C98808047968D0
:100A600049880143483243F832104FF4C842C4F277
:100A700000027B689B7A796889880804796809880C
:100A800001434833DB00134459607B681B7B012B17
:100A90002CD14FF4C843C4F200034FF4C842C4F24F
:100AA0000002D2F80C12FA680A43C3F80C224FF481
:100AB000C843C4F200037A68927A79680988080406
:100AC000796849880143483243F832104FF4C842EC
:100AD000C4F200027B689B7A796889880804796887
:100AE000C98801434833DB00134459607B68DB7AD3
:100AF000002B0FD14FF4C843C4F200034FF4C84297
:100B0000C4F20002D2F80412FA68D2430A40C3F8D1
:100B100004220DE04FF4C843C4F200034FF4C8426E
:100B2000C4F20002D2F80412FA680A43C3F804229D
:100B30007B681B89002B0ED14FF4C843C4F200031D
:100B40004FF4C842C4F20002D2F81412FA68D24339
:100B50000A40C3F814227B681B89012B0DD14FF486
:100B6000C843C4F200034FF4C842C4F20002D2F8F2
:100B70001412FA680A43C3F814227B685B7B012BCA
:100B80000DD14FF4C843C4F200034FF4C842C4F27D
:100B90000002D2F81C12FA680A43C3F81C224FF470
:100BA000C843C4F200034FF4C842C4F20002D2F8B2
:100BB000002222F00102C3F800221437BD465DF87E
:100BC000047B704780B485B000AF78603960002343
:100BD000FB737B689B6803F08063002B02D00023CB
:100BE000FB7313E07B689B6803F00063002B02D06B
:100BF0000123FB730AE07B689B6803F08053002BA2
:100C000002D00223FB7301E00423FB73FB7B042B64
:100C100000F09880FB7BFA7B7968183212010A4455
:100C2000126802F00102796818331B010B441A6044
:100C30003B681B7A002B13D1FB7BFA7B7968183257
:100C400012010A4411683A68126850053A68527AEB
:100C500002430A43796818331B010B441A6015E0FC
:100C6000FB7BFA7B7968183212010A4411683A68F2
:100C70005268D0003A68127A10433A68527A0243B6
:100C80000A43796818331B010B441A603B689B7A4E
:100C900003F00F03DAB23B689A72FB7BFA7B796848
:100CA000183212010A44526822F00F027968183390
:100CB0001B010B445A60FB7BFA7B796818321201E6
:100CC0000A4451683A68927A0A43796818331B01DA
:100CD0000B445A60FB7B3A68927B11063A68527B60
:100CE000120411433A68127B120211433A68D27A15
:100CF0000A4379681B010B4403F5C4731A60FB7B3C
:100D00003A68927C11063A68527C120411433A68A0
:100D1000127C120211433A68D27B0A4379681B01A4
:100D20000B4403F5C4735A60FB7BFA7B7968183275
:100D300012010A44126842F00102796818331B015B
:100D40000B441A60FB7B18461437BD465DF8047BE4
:100D5000704700BF80B485B000AFF8600B467A6082
:100D6000FB72FB7AFA681B331B0113441B68DBB26E
:100D700003F00403DAB27B681A727B681B7A002BDB
:100D800009D1FB7AFA681B331B0113441B685A0D07
:100D90007B681A6008E0FB7AFA681B331B01134476
:100DA0001B68DA087B685A60FB7AFA681B331B0100
:100DB00013441B68DBB203F00203DAB27B685A7299
:100DC000FB7AFA681B331B0113445B68DBB203F048
:100DD0000F03DAB27B689A72FB7AFA681B331B0145
:100DE00013445B681B0ADAB27B68DA74FB7AFA6830
:100DF0001B01134403F5DC731B68DAB27B68DA72FB
:100E0000FB7AFA681B01134403F5DC731B681B0AA9
:100E1000DAB27B681A73FB7AFA681B01134403F594
:100E2000DC731B681B0CDAB27B685A73FB7AFA68B6
:100E30001B01134403F5DC731B681B0EDAB27B68DD
:100E40009A73FB7AFA681B01134403F5DC735B6841
:100E5000DAB27B68DA73FB7AFA681B01134403F594
:100E6000DC735B681B0ADAB27B681A74FB7AFA6877
:100E70001B01134403F5DC735B681B0CDAB27B685F
:100E80005A74FB7AFA681B01134403F5DC735B6840
:100E90001B0EDAB27B689A74FB7A002B06D1FB68D2
:100EA000DB6843F02002FB68DA6005E0FB681B6941
:100EB00043F02002FB681A611437BD465DF8047BDD
:100EC000704700BF80B485B000AFF860B9601346CA
:100ED000FB71FB79002B06D0FB685A69BB681A438B
:100EE000FB685A6106E0FB685A69BB68DB431A403D
:100EF000FB685A611437BD465DF8047B704700BF3C
:100F000080B584B000AF786039600023FB737B68E4
:100F10005A693B681340002B00F0B5803B68402BBA
:100F200065D0402B0FD8042B3DD0042B04D8012BC7
:100F300024D0022B2ED0A2E0102B46D0202B4DD057
:100F4000082B39D09BE0B3F5006F00F08680B3F535
:100F5000006F09D8B3F5007F6DD0B3F5806F73D003
:100F6000B3F5807F5ED08AE0B3F5803F48D0B3F51B
:100F7000003F4ED0B3F5004F78D080E07B689B688F
:100F8000184640F20111C0F2010100F0F3F80346E7
:100F9000FB7377E07B68DB681846032100F0EAF812
:100FA0000346FB736EE07B68DB681846082100F09F
:100FB000E1F80346FB7365E07B68DB6818461021A7
:100FC00000F0D8F80346FB735CE07B681B691846A9
:100FD000032100F0CFF80346FB7353E07B681B69E5
:100FE0001846082100F0C6F80346FB734AE07B6808
:100FF0001B691846102100F0BDF80346FB7341E061
:101000007B685B681846082100F0B4F80346FB7360
:1010100038E07B685B681846102100F0ABF80346A7
:10102000FB732FE07B689B691846012100F0A2F852
:101030000346FB7326E07B689B691846022100F09B
:1010400099F80346FB731DE07B689B6918460421F1
:1010500000F090F80346FB7314E07B689B69184628
:10106000702100F087F80346FB730BE07B685B6838
:101070001846042100F07EF80346FB7302E00023CB
:10108000FB7300BF01E00023FB73FB7B18461037A6
:10109000BD4680BD80B483B000AF786039603B68E6
:1010A000B3F5807F46D0B3F5807F0DD8082B2DD0C7
:1010B000082B04D8012B1ED0042B23D054E0202B66
:1010C00028D0402B2AD04FE0B3F5006F3ED0B3F5C7
:1010D000006F06D8B3F5007F30D0B3F5806F31D004
:1010E00042E0B3F5803F1DD0B3F5003F1ED0B3F50D
:1010F000004F32D038E07A6840F20113C0F20103A9
:10110000936031E07B680822DA602DE07B68102272
:10111000DA6029E07B6808221A6125E07B681022EA
:101120001A6121E07B6808225A601DE07B6810226A
:101130005A6019E07B6804225A6015E07B6804223B
:101140005A6011E07B6804225A600DE07B6800223F
:101150009A617B6804225A6006E07B6800229A61EB
:101160007B6804225A6000BF0C37BD465DF8047BE3
:10117000704700BF80B485B000AF7860396000234D
:10118000FB737A683B681340002B02D00123FB738A
:1011900001E00023FB73FB7B18461437BD465DF866
:1011A000047B704780B489B000AF78603960002359
:1011B000FB6100233B610023BB610023FB60002334
:1011C0007B610023BB603B68DB7803F00F03FB61AE
:1011D0003B68DB7803F01003002B04D03B689B785E
:1011E000FA691343FB613B681B88DBB2002B44D0D8
:1011F0007B681B687B610023BB6138E0BB6901220F
:1012000002FA03F3FB603B681B881A46FB68134035
:101210003B613A69FB689A4226D1BB699B00FB603F
:10122000FB680F2202FA03F3BB60BB68DB437A69F9
:1012300013407B61FB68FA6902FA03F37A6913438E
:101240007B613B68DB78282B05D1BB6901229A4082
:101250007B685A6108E03B68DB78482B04D1BB69A6
:1012600001229A407B681A61BB690133BB61BB698B
:10127000072BC3D97B687A691A603B681B88FF2BF0
:1012800046D97B685B687B610023BB613AE0BB6940
:101290000833012202FA03F3FB603B681B881A46FD
:1012A000FB6813403B613A69FB689A4227D1BB69EE
:1012B0009B00FB60FB680F2202FA03F3BB60BB6874
:1012C000DB437A6913407B61FB68FA6902FA03F336
:1012D0007A6913437B613B68DB78282B05D1BB69B6
:1012E000083301229A407B685A613B68DB78482BBF
:1012F00005D1BB69083301229A407B681A61BB693A
:101300000133BB61BB69072BC1D97B687A695A601D
:101310002437BD465DF8047B704700BF80B483B0BE
:1013200000AF03463960FB7197F90730002B0EDAE6
:101330004FF46D43CEF20003FA7902F00F02111F51
:101340003A68D2B21201D2B20B441A760CE04FF4D2
:101350006143CEF2000397F907103A68D2B2120146
:10136000D2B20B4483F800230C37BD465DF8047BF2
:10137000704700BF80B582B000AF78607B68B3F182
:10138000807F01D301231AE04EF21003CEF2000356
:101390007A6822F07F42013A5A604FF0FF300F2105
:1013A000FFF7BCFF4EF21003CEF2000300229A605A
:1013B0004EF21003CEF2000307221A6000231846F3
:1013C0000837BD4680BD00BF80B582B000AFFFF7D3
:1013D00037F80420012100F085FD4FF48063BB80C5
:1013E0000323BB711023FB713B1D4FF40060C4F25B
:1013F00001001946FFF7D6FE40F20003C2F20003D7
:101400001A6844F6D353C1F26203A3FB02139B098B
:101410001846FFF7AFFF0346002B01D001F0B8F9E3
:1014200001F0C2FAFFF736F901F0F6FD00F004FA18
:1014300001F010FD0837BD4680BD00BF80B485B007
:1014400000AF78607B681B68DBB203F01F03BB73DF
:10145000BB7B032B03D00F2B00F00C810BE140F280
:101460005843C2F200031B685A1C40F25843C2F2B0
:1014700000031A600023FB73F5E0FB7B7A681344DA
:10148000DB7A613B112B00F2E78001A252F823F0D6
:10149000D9140008EF1400080515000815150008F8
:1014A000251500083B1500085115000867150008B0
:1014B0007D15000893150008A9150008BF15000840
:1014C000D5150008EB1500080116000817160008CE
:1014D0002D16000843160008FB7B01337A6813447D
:1014E000DA7A40F25C43C2F200031A70B5E0FB7B8B
:1014F00001337A681344DA7A40F25C43C2F20003A3
:101500005A70AAE07B681A7B40F25C43C2F2000387
:101510009A70A2E07B681A7B40F25C43C2F200033F
:10152000DA709AE0FB7B01337A681344DA7A40F28E
:101530005C43C2F200031A718FE0FB7B01337A68CF
:101540001344DA7A40F25C43C2F200035A7184E039
:10155000FB7B01337A681344DA7A40F25C43C2F2CF
:1015600000039A7179E0FB7B01337A681344DA7ADD
:1015700040F25C43C2F20003DA716EE0FB7B0133A0
:101580007A681344DA7A40F25C43C2F200031A72BA
:1015900063E0FB7B01337A681344DA7A40F25C4300
:1015A000C2F200035A7258E0FB7B01337A6813449D
:1015B000DA7A40F25C43C2F200039A724DE0FB7BA0
:1015C00001337A681344DA7A40F25C43C2F20003D2
:1015D000DA7242E0FB7B01337A681344DA7A40F234
:1015E0005C43C2F200031A7337E0FB7B01337A6875
:1015F0001344DA7A40F25C43C2F200035A732CE0DF
:10160000FB7B01337A681344DA7A40F25C43C2F21E
:1016100000039A7321E0FB7B01337A681344DA7A82
:1016200040F25C43C2F20003DA7316E0FB7B013345
:101630007A681344DA7A40F25C43C2F200031A7407
:101640000BE0FB7B01337A681344DA7A40F25C43A7
:10165000C2F200035A7400E000BFFB7B0233FB734D
:10166000FB7B0133FB737B689B7AFA7B9A42FFF426
:1016700004AF00E000BF1437BD465DF8047B70473F
:10168000B0B483B000AF03463960FB71FB79012B26
:1016900034D140F26E43C2F200031B781946386819
:1016A00040F29442C2F200020B469B000B449B00A6
:1016B000134404461D460FCD0FC42B68236040F22F
:1016C0006E43C2F200031B780133DAB240F26E437C
:1016D000C2F200031A7040F26E43C2F200031A789D
:1016E00040F26F43C2F200031B789A422BD340F2C0
:1016F0006E43C2F2000300221A7024E0FB79002B33
:1017000021D140F26F43C2F200031B78194640F228
:101710009442C2F200020B469B000B449B001A4409
:101720003B6814461D460FCD0FC42B68236040F262
:101730006F43C2F200031B780133DAB240F26F4309
:10174000C2F200031A700C37BD46B0BC704700BF30
:1017500080B500AF4FF4C840C4F200000121FFF78C
:10176000CFFB0346002B17D0012040F22461C2F2C8
:101770000001FFF785FF4FF4C840C4F2000040F2BB
:101780002461C2F20001FFF71DFA4FF4C840C4F211
:1017900000000121FFF77EFC80BD00BF80B500AFD7
:1017A0004FF4C840C4F200000221FFF7A9FB034632
:1017B000002B10D04FF4C840C4F20000002140F2CA
:1017C0008042C2F20002FFF7C5FA40F28040C2F246
:1017D0000000FFF733FE80BD80B400AFBD465DF86A
:1017E000047B704780B592B000AF3A46462310465E
:1017F00000211A4601F04CFDFFF7E6FD11E040F232
:101800007043C2F2000300221A603B4643F23032BA
:10181000C0F6000207CA03C31A703B46184601F01F
:1018200091FC40F27043C2F200031B68B3F5967F4F
:10183000E5DC00BFF5E700BF80B58AB000AF00234C
:101840007B624FF4C840C4F20000FEF7CDFF0420D5
:10185000012100F047FB4FF00070012100F06AFB0E
:101860004FF400633B84482387F82330032387F831
:10187000223007F120034FF40060C4F20100194642
:10188000FFF790FC4FF480533B84182387F82330F4
:1018900007F120034FF40060C4F201001946FFF77E
:1018A00081FC0123BB760023FB7600233B770023DA
:1018B0007B770023BB770023FB770023BB750023D6
:1018C000FB7505233B7606237B760323BB8207F15A
:1018D00014034FF4C840C4F200001946FEF7A8FFF5
:1018E000E3E17B6ADBB2BB730023BB8140F21403EC
:1018F000C2F200037A6A4C2101FB02F213441B6816
:10190000002B00F0C98101237B7440F21403C2F262
:1019100000037A6A4C2101FB02F2134404331B6872
:10192000012B02D10023FB730EE040F21403C2F23C
:1019300000037A6A4C2101FB02F2134404331B6852
:10194000002B01D10123FB7340F21403C2F2000308
:101950007A6A4C2101FB02F2134408331B68102BF6
:1019600040F0F38000233B7440F21403C2F2000302
:101970007A6A4C2101FB02F213440C331B685B01B1
:101980009AB240F21403C2F20003796A4C2000FBC1
:1019900001F10B441C331B681B019BB213439AB229
:1019A00040F21403C2F20003796A4C2000FB01F1FB
:1019B0000B442C331B68DB009BB213439AB240F2FA
:1019C0001403C2F20003796A4C2000FB01F10B44BE
:1019D0003C331B68DB139BB213439BB29BB2FB806F
:1019E00040F21403C2F200037A6A4C2101FB02F2B6
:1019F000134410331B685B019AB240F21403C2F225
:101A00000003796A4C2000FB01F10B4420331B6872
:101A10001B019BB213439AB240F21403C2F20003BB
:101A2000796A4C2000FB01F10B4430331B68DB006A
:101A30009BB213439AB240F21403C2F20003796AD4
:101A40004C2000FB01F10B4440331B68DB139BB2BD
:101A500013439BB29BB27B8140F21403C2F200039A
:101A60007A6A4C2101FB02F2134414331B685B01B8
:101A70009AB240F21403C2F20003796A4C2000FBD0
:101A800001F10B4424331B681B019BB213439AB230
:101A900040F21403C2F20003796A4C2000FB01F10A
:101AA0000B4434331B68DB009BB213439AB240F201
:101AB0001403C2F20003796A4C2000FB01F10B44CD
:101AC00044331B68DB139BB213439BB29BB2BB80B6
:101AD00040F21403C2F200037A6A4C2101FB02F2C5
:101AE000134418331B685B019AB240F21403C2F22C
:101AF0000003796A4C2000FB01F10B4428331B687A
:101B00001B019BB213439AB240F21403C2F20003CA
:101B1000796A4C2000FB01F10B4438331B68DB0071
:101B20009BB213439AB240F21403C2F20003796AE3
:101B30004C2000FB01F10B4448331B68DB139BB2C4
:101B400013439BB29BB23B81A8E040F21403C2F264
:101B500000037A6A4C2101FB02F2134408331B682C
:101B6000202B40F09B8001233B7440F21403C2F20F
:101B700000037A6A4C2101FB02F213443C331B68D8
:101B8000DB009AB240F21403C2F20003796A4C20DF
:101B900000FB01F10B442C331B689B009BB21343E9
:101BA0009AB240F21403C2F20003796A4C2000FB9F
:101BB00001F10B441C331B685B009BB213439BB2C7
:101BC0009BB2FB8040F21403C2F200037A6A4C21FC
:101BD00001FB02F213440C331B685B019AB240F222
:101BE0001403C2F20003796A4C2000FB01F10B449C
:101BF0003C331B685B139BB213439BB29BB27B814C
:101C000040F21403C2F200037A6A4C2101FB02F293
:101C1000134440331B68DB009AB240F21403C2F253
:101C20000003796A4C2000FB01F10B4430331B6840
:101C30009B009BB213439AB240F21403C2F200031A
:101C4000796A4C2000FB01F10B4420331B685B00D8
:101C50009BB213439BB29BB2BB8040F21403C2F20F
:101C600000037A6A4C2101FB02F2134410331B6813
:101C70005B019AB240F21403C2F20003796A4C206D
:101C800000FB01F10B4440331B685B139BB2134311
:101C90009BB29BB23B8101E000237B743B1D184645
:101CA000FEF798FE7B6A01337B627B6A0D2B7FF720
:101CB00018AE4FF4C840C4F2000002210122FFF721
:101CC00001F94FF4C840C4F2000001210122FFF7DE
:101CD000F9F82837BD4680BD80B487B000AF786082
:101CE00000237B6100233B610023FB600023BB607A
:101CF0004FF48053C4F202035B6803F00C037B6172
:101D00007B69042B0AD0082B0FD0002B4CD17A68AA
:101D10004FF49053C0F27A0313604CE07A684FF4AA
:101D20009053C0F27A03136045E04FF48053C4F23D
:101D300002035B6803F470133B614FF48053C4F2F9
:101D400002035B6803F48033FB603B699B0C023346
:101D50003B61FB68002B09D13A694FF41063C0F274
:101D60003D0303FB02F27B681A601CE04FF48053D2
:101D7000C4F202035B6803F40033002B09D03A6914
:101D80004FF41063C0F23D0303FB02F27B681A605C
:101D900009E03A694FF49053C0F27A0303FB02F270
:101DA0007B681A6007E006E07A684FF49053C0F24F
:101DB0007A03136000BF4FF48053C4F202035B68E0
:101DC00003F0F0037B617B691B097B6140F23C43BC
:101DD000C2F200037A6913441B78DBB2BB607B68F4
:101DE0001A68BB68DA407B685A604FF48053C4F2CB
:101DF00002035B6803F4E0637B617B691B0A7B6120
:101E000040F23C43C2F200037A6913441B78DBB210
:101E1000BB607B685A68BB68DA407B689A604FF4A5
:101E20008053C4F202035B6803F460537B617B69F7
:101E3000DB0A7B6140F23C43C2F200037A6913443F
:101E40001B78DBB2BB607B685A68BB68DA407B6892
:101E5000DA604FF48053C4F202035B6803F440433A
:101E60007B617B699B0B7B6140F24C43C2F20003B8
:101E70007A6913441B78DBB2BB607B68DA68BB68A5
:101E8000B2FBF3F27B681A611C37BD465DF8047B38
:101E9000704700BF80B483B000AF78600B46FB7022
:101EA000FB78002B0CD04FF48053C4F202034FF4A4
:101EB0008052C4F2020251697A680A435A610CE006
:101EC0004FF48053C4F202034FF48052C4F2020272
:101ED00051697A68D2430A405A610C37BD465DF8B1
:101EE000047B704780B483B000AF78600B46FB7012
:101EF000FB78002B0CD04FF48053C4F202034FF454
:101F00008052C4F2020291697A680A439A610CE035
:101F10004FF48053C4F202034FF48052C4F2020221
:101F200091697A68D2430A409A610C37BD465DF8E0
:101F3000047B704780B483B000AF78600B46FB70C1
:101F4000FB78002B0CD04FF48053C4F202034FF403
:101F50008052C4F20202D1697A680A43DA610CE065
:101F60004FF48053C4F202034FF48052C4F20202D1
:101F7000D1697A68D2430A40DA610C37BD465DF810
:101F8000047B704780B483B000AF78600B46FB7071
:101F9000FB78002B0CD04FF48053C4F202034FF4B3
:101FA0008052C4F20202D1687A680A43DA600CE017
:101FB0004FF48053C4F202034FF48052C4F2020281
:101FC000D1687A68D2430A40DA600C37BD465DF8C2
:101FD000047B704780B483B000AF78600B46FB7021
:101FE000FB78002B0CD04FF48053C4F202034FF463
:101FF0008052C4F2020211697A680A431A610CE045
:102000004FF48053C4F202034FF48052C4F2020230
:1020100011697A68D2430A401A610C37BD465DF8EF
:10202000047B704780B582B000AF78607A684FF467
:102030001053C4F201039A420AD14FF400700121F7
:10204000FFF7A0FF4FF400700021FFF79BFF22E095
:102050007A684FF42053C4F201039A420AD14FF434
:1020600080600121FFF78EFF4FF480600021FFF7B1
:1020700089FF10E07A684FF47053C4F201039A426A
:1020800009D14FF400400121FFF77CFF4FF40040DD
:102090000021FFF777FF0837BD4680BD80B485B0CB
:1020A00000AF786039600023FB600023FB727B681F
:1020B0005B68FB60FB6823F4702323F48073FB6090
:1020C0003B681A683B681B791B021343FA68134389
:1020D000FB607B68FA685A607B689B68FB60FA6803
:1020E0004FF2FD73CFF6F1731340FB603B68DA6883
:1020F0003B689B681A433B685B795B001343FA6853
:102100001343FB607B68FA689A607B68DB6AFB605C
:10211000FB6823F47003FB603B681B7C013BDAB275
:10212000FB7A1343FB72FB7A1B05FA681343FB60CF
:102130007B68FA68DA621437BD465DF8047B704745
:1021400080B483B000AF78607B6800221A607B683F
:1021500000221A717B6800225A717B6800229A6003
:102160007B680022DA607B6801221A740C37BD4656
:102170005DF8047B704700BF80B483B000AF786027
:102180000B46FB70FB78002B06D07B689B6843F006
:1021900001027B689A6005E07B689B6823F001027E
:1021A0007B689A600C37BD465DF8047B704700BFC2
:1021B00080B483B000AF78600B46FB70FB78002BD7
:1021C00006D07B689B6843F480727B689A6005E068
:1021D0007B689B6823F480727B689A600C37BD46ED
:1021E0005DF8047B704700BF80B483B000AF7860B7
:1021F0007B689B6843F008027B689A600C37BD4699
:102200005DF8047B704700BF80B485B000AF786094
:102210000023FB737B689B6803F00803002B02D04C
:102220000123FB7301E00023FB73FB7B184614378B
:10223000BD465DF8047B704780B483B000AF786022
:102240007B689B6843F004027B689A600C37BD464C
:102250005DF8047B704700BF80B485B000AF786044
:102260000023FB737B689B6803F00403002B02D000
:102270000123FB7301E00023FB73FB7B184614373B
:10228000BD465DF8047B704780B483B000AF7860D2
:102290000B46FB70FB78002B06D07B689B6843F4F1
:1022A000A0027B689A6005E07B689B6823F4A0022B
:1022B0007B689A600C37BD465DF8047B704700BFB1
:1022C00080B485B000AF7860F970BA707B7000237D
:1022D000FB600023BB60FB78092B23D97B68DB689C
:1022E000FB60FB78A3F10A0213465B00134407224C
:1022F00002FA03F3BB60BB68DB43FA681340FB6080
:102300007978FB78A3F10A0213465B00134401FAC3
:1023100003F3BB60FA68BB681343FB607B68FA6831
:10232000DA601EE07B681B69FB60FA7813465B008D
:102330001344072202FA03F3BB60BB68DB43FA686D
:102340001340FB607978FA7813465B00134401FA76
:1023500003F3BB60FA68BB681343FB607B68FA68F1
:102360001A61BB78062B21D87B685B6BFB60BB785E
:102370005A1E13469B0013441F2202FA03F3BB604C
:10238000BB68DB43FA681340FB60F978BB785A1EE0
:1023900013469B00134401FA03F3BB60FA68BB6861
:1023A0001343FB607B68FA685A6347E0BB780C2BE9
:1023B00021D87B681B6BFB60BB78DA1F13469B0040
:1023C00013441F2202FA03F3BB60BB68DB43FA68C5
:1023D0001340FB60F978BB78DA1F13469B00134467
:1023E00001FA03F3BB60FA68BB681343FB607B68C8
:1023F000FA681A6322E07B68DB6AFB60BB78A3F1B2
:102400000D0213469B0013441F2202FA03F3BB6024
:10241000BB68DB43FA681340FB60F978BB78A3F133
:102420000D0213469B00134401FA03F3BB60FA68E4
:10243000BB681343FB607B68FA68DA621437BD46F9
:102440005DF8047B704700BF80B58CB000AF78604A
:1024500039600023FB620023BB6200237B62002300
:102460003B620023FB617B68FB617B681B8A9BB23C
:10247000FB62FA6A4CF6FF731340FB623B68DB8831
:10248000FA6A1343FB62FB6A9AB27B681A827B6822
:102490009B899BB2FB62FA6A4EF6F3131340FB6210
:1024A0003B689A883B681B8913439AB23B685B89F7
:1024B00013439BB2FA6A1343FB62FB6A9AB27B68CE
:1024C0009A817B689B8A9BB2FB62FA6A4FF6FF4354
:1024D0001340FB623B689B89FA6A1343FB62FB6A09
:1024E0009AB27B689A8207F108031846FFF7F4FB5B
:1024F000FA694FF46053C4F201039A4202D17B6936
:10250000BB6201E03B69BB627B689B899BB29BB26B
:102510001BB2002B0CDABA6A13469B0013449A00D4
:102520001A443B681B685B00B2FBF3F37B620BE071
:10253000BA6A13469B0013449A001A443B681B680E
:102540009B00B2FBF3F37B627A6A48F21F53C5F239
:10255000EB13A3FB02135B091B01FB62FB6A1B0964
:10256000642202FB03F37A6AD31A3B627B689B897D
:102570009BB29BB21BB2002B10DA3B6ADB0003F16B
:10258000320248F21F53C5F2EB13A3FB02135B099F
:1025900003F00703FA6A1343FB620FE03B6A1B0177
:1025A00003F1320248F21F53C5F2EB13A3FB0213EF
:1025B0005B0903F00F03FA6A1343FB62FB6A9AB2EA
:1025C0007B681A813037BD4680BD00BF80B483B0C0
:1025D00000AF78600B46FB70FB78002B08D07B685F
:1025E0009B899BB243F400539AB27B689A8107E0BF
:1025F0007B689B899BB223F400539AB27B689A81D3
:102600000C37BD465DF8047B704700BF80B487B0CF
:1026100000AF786013460A467A807B7000233B61E6
:102620000023FB600023BB6000237B617B687B6130
:102630007B88DBB25B09DBB23B617B8803F01F0365
:10264000FB60FB68012202FA03F3BB603B69012BCC
:1026500003D17B690C337B6109E03B69022B03D119
:102660007B6910337B6102E07B6914337B617B788B
:10267000002B06D07B697A691168BA680A431A6030
:1026800006E07B697A691168BA68D2430A401A6029
:102690001C37BD465DF8047B704700BF80B483B033
:1026A00000AF78600B467B807B88C3F308039AB247
:1026B0007B689A800C37BD465DF8047B704700BF8D
:1026C00080B483B000AF78607B689B889BB2C3F313
:1026D00008039BB218460C37BD465DF8047B704773
:1026E00080B487B000AF78600B467B800023FB602E
:1026F00000237B610023BB600023FB747B88DBB27B
:102700005B09DBB2BB607B8803F01F037B617B69E5
:10271000012202FA03F37B61BB68012B06D17B68BF
:102720009B899BB27A6913407B610FE0BB68022BE7
:1027300006D17B681B8A9BB27A6913407B6105E0F6
:102740007B689B8A9BB27A6913407B617B881B0AFA
:102750009BB2FB60FB68012202FA03F3FB607B681B
:102760001B889BB2FA681340FB607B69002B05D085
:10277000FB68002B02D00123FB7401E00023FB74F3
:10278000FB7C18461C37BD465DF8047B704700BFD4
:1027900080B483B000AF0123FB8000233B6000BF07
:1027A0003A68531C3B604AF21F13C0F207039A4277
:1027B000F6D9FB885B00FB80FB880F2B02D9012335
:1027C000FB80EAE7E9E700BF80B400AFBD465DF8F3
:1027D000047B704780B500AFFFF7DAFF80BD00BF14
:1027E00080B500AFFFF7D4FF80BD00BF80B500AF5C
:1027F000FFF7CEFF80BD00BF80B500AFFFF7C8FF79
:1028000080BD00BF80B400AFBD465DF8047B70475B
:1028100080B400AFBD465DF8047B704780B400AF64
:10282000BD465DF8047B704780B400AF40F2704352
:10283000C2F200031B685A1C40F27043C2F200034C
:102840001A6040F27443C2F200031B68002B0AD0E6
:1028500040F27443C2F200031B685A1E40F27443F4
:10286000C2F200031A60BD465DF8047B704700BFEA
:1028700080B500AF4FF43050C4F201000121FDF7E4
:10288000B5FD0346002B27D04FF43053C4F20103AB
:102890001B889BB21B099BB2012B0BD140F24463F6
:1028A000C2F200031B685A1C40F24463C2F20003E8
:1028B0001A600AE040F23863C2F200031B685A1C37
:1028C00040F23863C2F200031A604FF43050C4F291
:1028D00001000121FDF77AFD80BD00BF80B500AF8A
:1028E0004FF080400121FDF781FD0346002B23D0EE
:1028F0004FF080431B889BB21B099BB2012B0BD16D
:1029000040F24C63C2F200031B685A1C40F24C6355
:10291000C2F200031A600AE040F24063C2F2000310
:102920001B685A1C40F24063C2F200031A604FF069
:1029300080400121FDF74AFD80BD00BF80B500AF9A
:102940004FF48060C4F200000121FDF74FFD034603
:10295000002B27D04FF48063C4F200031B889BB286
:102960001B099BB2012B0BD140F23C63C2F2000366
:102970001B685A1C40F23C63C2F200031A600AE072
:1029800040F24863C2F200031B685A1C40F24863DD
:10299000C2F200031A604FF48060C4F2000001210B
:1029A000FDF714FD80BD00BF80B592B000AF07F108
:1029B00034031846FFF7C4FB07F10803184600F07C
:1029C00003FA01200121FFF765FA4FF4037001219A
:1029D000FFF788FA3023BB800323BB710023FB7110
:1029E0003B1D4FF40060C4F201001946FEF7DAFB0C
:1029F0000323BB803B1D4FF44060C4F20100194625
:102A0000FEF7D0FB0820C4F2020000F0A9F842F261
:102A10004C43C4F20103BB6040F25063C2F20003B6
:102A2000FB6000233B6104237B610023BB618023A7
:102A3000FB614FF480733B624FF480637B62202321
:102A4000BB624FF40053FB6200233B6307F10803B2
:102A50000820C4F20200194600F078F90820C4F2F8
:102A60000200012100F0DAF94FF41050C4F2010025
:102A7000FFF7D8FA00237B63002387F8383001235F
:102A800087F839304FF46023FB6300233B64042351
:102A900087F8443007F134034FF41050C4F20100BA
:102AA0001946FFF7FBFA4FF41050C4F2010004215D
:102AB00001220423FFF704FC4FF41050C4F201007C
:102AC000052102220423FFF7FBFB4FF41050C4F250
:102AD0000100082103220423FFF7F2FB4FF41050FA
:102AE000C4F20100092104220423FFF7E9FB4FF49B
:102AF0001050C4F201000121FFF75AFB4FF41050AF
:102B0000C4F201000121FFF737FB4FF41050C4F26B
:102B10000100FFF769FB00BF4FF41050C4F2010041
:102B2000FFF772FB0346002BF6D14FF41050C4F2AE
:102B30000100FFF781FB00BF4FF41050C4F2010009
:102B4000FFF78AFB0346002BF6D14FF41050C4F276
:102B500001000121FFF798FB4837BD4680BD00BF4B
:102B600080B483B000AF78607B681A684FF6FE735C
:102B700013407A6813607B6800221A607B68002229
:102B80005A607B6800229A607B680022DA607A686B
:102B90000823C4F202039A420AD10023C4F20203BA
:102BA0000022C4F20202526842F00F025A60C8E0EA
:102BB0007A681C23C4F202039A420AD10023C4F2A9
:102BC00002030022C4F20202526842F0F0025A608C
:102BD000B7E07A683023C4F202039A420AD1002394
:102BE000C4F202030022C4F20202526842F470628C
:102BF0005A60A6E07A684423C4F202039A420AD1DA
:102C00000023C4F202030022C4F20202526842F41A
:102C100070425A6095E07A685823C4F202039A42DF
:102C20000AD10023C4F202030022C4F20202526855
:102C300042F470225A6084E07A686C23C4F2020382
:102C40009A420AD10023C4F202030022C4F2020213
:102C5000526842F470025A6073E07A688023C4F2CA
:102C600002039A420AD10023C4F202030022C4F2F2
:102C70000202526842F070625A6062E07A684FF471
:102C80008163C4F202039A420CD14FF48063C4F210
:102C900002034FF48062C4F20202526842F00F0253
:102CA0005A604EE07A6840F21C43C4F202039A4232
:102CB0000CD14FF48063C4F202034FF48062C4F27B
:102CC0000202526842F0F0025A603AE07A684FF429
:102CD0008663C4F202039A420CD14FF48063C4F2BB
:102CE00002034FF48062C4F20202526842F470623E
:102CF0005A6026E07A6840F24443C4F202039A42E2
:102D00000CD14FF48063C4F202034FF48062C4F22A
:102D10000202526842F470425A6012E07A684FF43C
:102D20008B63C4F202039A420BD14FF48063C4F266
:102D300002034FF48062C4F20202526842F470222D
:102D40005A600C37BD465DF8047B704780B485B08F
:102D500000AF786039600023FB607B681B68FB6014
:102D6000FB6823F4FF4323F07003FB603B689A6821
:102D70003B681B6A1A433B681B691A433B685B69E3
:102D80001A433B689B691A433B68DB691A433B68FB
:102D90005B6A1A433B689B6A1343FA681343FB6000
:102DA0007B68FA681A603B68DA687B685A603B683F
:102DB0001A687B689A603B685A687B68DA601437E7
:102DC000BD465DF8047B704780B483B000AF786087
:102DD0007B6800221A607B6800225A607B680022B0
:102DE0009A607B680022DA607B6800221A617B6847
:102DF00000225A617B6800229A617B680022DA61B6
:102E00007B6800221A627B6800225A627B6800227B
:102E10009A620C37BD465DF8047B704780B483B07E
:102E200000AF78600B46FB70FB78002B06D07B6808
:102E30001B6843F001027B681A6006E07B681A6831
:102E40004FF6FE7313407A6813600C37BD465DF889
:102E5000047B704780B582B000AF4FF4C06000F0D3
:102E60005FF826233B7102237B710023BB71012392
:102E7000FB713B1D184600F067F84FF4E06000F06E
:102E80004FF819233B7100237B710023BB71012391
:102E9000FB713B1D184600F057F84FF4E06000F05E
:102EA0003FF81C233B7100237B710023BB7101237E
:102EB000FB713B1D184600F047F84FF4E06000F04E
:102EC0002FF81D233B7100237B710023BB7101236D
:102ED000FB713B1D184600F037F84FF4E06000F03E
:102EE0001FF814233B7100237B710023BB71012366
:102EF000FB713B1D184600F027F84FF4E06000F02E
:102F00000FF813233B7100237B710023BB71012356
:102F1000FB713B1D184600F017F80837BD4680BD11
:102F200080B483B000AF78604FF46D43CEF20003FD
:102F30007A6842F0BF6242F40032DA600C37BD4674
:102F40005DF8047B704700BF80B487B000AF786045
:102F500000237B6100233B610F23FB607B68DB78F0
:102F6000002B42D04FF46D43CEF20003DB68DB430D
:102F700003F4E0631B0A7B617B69C3F104033B61DB
:102F80007B69FA6822FA03F3FB607B685B781A4678
:102F90003B6902FA03F37B617B689B781A46FB6806
:102FA00013407A6913437B617B691B017B614FF49A
:102FB0006143CEF200037A68127811467A69D2B280
:102FC0000B4483F800234FF46143CEF200037A6888
:102FD00012785209D2B27968097801F01F010120F4
:102FE00000FA01F143F8221011E04FF46143CEF2F0
:102FF00000037A6812785209D2B27968097801F030
:103000001F01012000FA01F1203243F822101C3781
:10301000BD465DF8047B704780B586B000AF4FF4C5
:1030200000300121FEF786FF04200121FEF75AFF40
:103030000423BB821823FB750323BB7507F114031C
:103040004FF40060C4F201001946FEF7ABF8082304
:10305000BB820423FB750323BB7507F114034FF4F4
:103060000060C4F201001946FEF79CF84FF4964345
:103070007B6000233B8100237B810023BB810023F5
:103080003B820C23FB813B1D4FF48840C4F20000BF
:103090001946FFF7D9F94FF48840C4F2000040F216
:1030A00025510122FFF7B2FA4FF48840C4F2000024
:1030B0000121FFF78BFA1837BD4680BD80B582B07D
:1030C00000AF0346FB714FF48840C4F2000040F2A9
:1030D00027710022FFF79AFA40F25043C2F2000330
:1030E0001A6840F25C63C2F20003F979995440F225
:1030F0005043C2F200031B685A1C40F25043C2F214
:1031000000031A6040F25043C2F200031B68C72B51
:1031100005DD40F27843C2F2000300221A6040F25B
:103120005043C2F2000301221A604FF48840C4F2F7
:10313000000040F227710122FFF768FA0837BD4608
:1031400080BD00BF80B582B000AF78604FF488408A
:10315000C4F2000040F227710022FFF757FA25E081
:1031600040F25043C2F200031A687B68591C796030
:10317000197840F25C63C2F20003995440F2504364
:10318000C2F200031B685A1C40F25043C2F2000313
:103190001A6040F25043C2F200031B68C72B05DDE2
:1031A00040F25043C2F2000300221A607B681B7891
:1031B000002BD5D14FF48840C4F2000040F22771B3
:1031C0000122FFF723FA0837BD4680BD80B582B0E3
:1031D00000AF4FF48840C4F2000040F22551FFF7E1
:1031E0007FFA0346002B0BD04FF48840C4F2000056
:1031F000FFF766FA0346FB71FB791846FFF75EFF9F
:103200004FF48840C4F2000040F22771FFF768FADB
:103210000346002B39D040F27843C2F200031B680A
:103220001A46511C40F27843C2F20003196040F282
:103230005C63C2F200039B5C4FF48840C4F2000060
:103240001946FFF72BFA40F27843C2F200031B68DD
:10325000C72B05DD40F27843C2F2000300221A605A
:1032600040F27843C2F200031A6840F25043C2F2BF
:1032700000031B689A4208D14FF48840C4F2000052
:1032800040F227710022FFF7C1F90837BD4680BD23
:103290008307F0B448D0541E002A43D0CDB2034671
:1032A00002E0002C3ED0144603F8015B13F0030F3C
:1032B00004F1FF32F5D1032C2DD9CDB20F2C45EA04
:1032C000052545EA054518D9A4F1100703F11006B4
:1032D0001A463F0906EB07161560103242F80C5CDF
:1032E00042F8085C42F8045CB242F5D104F00F04E5
:1032F0000137032C03EB07130DD91E462246043A6F
:1033000046F8045B032AFAD8221F04F0030422F0D3
:103310000302043213442CB1C9B21C4403F8011B4C
:10332000A342FBD1F0BC704714460346C3E700BF7D
:0C33300048656C6C6F210D0A0000000065
:10333C0000A24A0400000000000000000102030487
:10334C000607080901000000000000001000000042
:10335C00000000000A0000000B0000000C00000040
:10336C000000000000000000000000000000000051
:10337C000000000000000000000000000000000041
:10338C000000000000000000000000000000000031
:10339C000100000001000000100000000D00000002
:1033AC000E0000000F0000000A00000000000000EA
:1033BC000000000000000000000000000000000001
:1033CC0000000000000000000000000000000000F1
:1033DC0000000000000000000000000000000000E1
:1033EC0000000000200000000000000000000000B1
:1033FC0000000000000000000000000000000000C1
:10340C0000000000000000000000000000000000B0
:10341C0000000000000000000000000000000000A0
:10342C00000000000000000000000000010000008F
:10343C002000000000000000000000000000000060
:10344C000000000000000000000000000000000070
:10345C000000000000000000000000000000000060
:10346C000000000000000000000000000000000050
:10347C000000000000000000000000001000000030
:10348C00000000000A0000000B0000000C0000000F
:10349C000000000000000000000000000000000020
:1034AC000000000000000000000000000000000010
:1034BC000000000000000000000000000000000000
:1034CC0000000000000000001000000000000000E0
:1034DC000A0000000B0000000C00000000000000BF
:1034EC0000000000000000000000000000000000D0
:1034FC0000000000000000000000000000000000C0
:10350C0000000000000000000000000000000000AF
:10351C000000000010000000000000000A00000085
:10352C000B0000000C000000000000000000000078
:10353C00000000000000000000000000000000007F
:10354C00000000000000000000000000000000006F
:10355C00000000000000000000000000000000005F
:10356C0010000000000000000A0000000B0000002A
:10357C000C00000000000000000000000000000033
:10358C00000000000000000000000000000000002F
:10359C00000000000000000000000000000000001F
:1035AC0000000000000000000000000010000000FF
:1035BC00000000000A0000000B0000000C000000DE
:1035CC0000000000000000000000000000000000EF
:1035DC0000000000000000000000000000000000DF
:1035EC0000000000000000000000000000000000CF
:1035FC0000000000000000001000000000000000AF
:10360C000A0000000B0000000C000000000000008D
:10361C00000000000000000000000000000000009E
:10362C00000000000000000000000000000000008E
:10363C00000000000000000000000000000000007E
:10364C000000000010000000000000000A00000054
:10365C000B0000000C000000000000000000000047
:10366C00000000000000000000000000000000004E
:10367C00000000000000000000000000000000003E
:10368C00000000000000000000000000000000002E
:10369C0010000000000000000A0000000B000000F9
:1036AC000C00000000000000000000000000000002
:1036BC0000000000000000000000000000000000FE
:1036CC0000000000000000000000000000000000EE
:1036DC0000000000000000000000000010000000CE
:1036EC00000000000A0000000B0000000C000000AD
:1036FC0000000000000000000000000000000000BE
:10370C0000000000000000000000000000000000AD
:10371C00000000000000000000000000000000009D
:10372C00000000000000000010000000000000007D
:10373C000A0000000B0000000C000000000000005C
:10374C00000000000000000000000000000000006D
:10375C00000000000000000000000000000000005D
:10376C00000000000000000000000000000000004D
:10377C0001020304010203040607080902040608F7
:08378C00010000000100000033
:0400000508000000EF
:00000001FF
